:020000040800F2
:1020000000040020392200083B2200083B2200087F
:102010003B2200083B2200083B2200083B2200082C
:102020003B2200083B2200083B22000865D800083C
:102030003B2200083B2200083B22000845EE000836
:102040003B2200083B2200083B2200083B220008FC
:102050003B2200083B22000835E7000875E700082E
:10206000B5E70008F5E7000835E8000811EB0008BF
:1020700025EB000839EB00084DEB000861EB000888
:1020800075EB000889EB00083B2200083B220008A2
:1020900035EF00083B2200083B22000875E80008E5
:1020A0003B2200083B2200083B2200083B2200089C
:1020B0003B2200083B220008A9EE00083B22000852
:1020C0003B2200083B2200083B2200083B2200087C
:1020D0003B2200080DEF00083B22000821EF00081A
:1020E00031E90008F5E900083B2200083B2200081E
:1020F0003B2200083B2200083B2200083B2200084C
:102100003B2200083B2200083B2200083B2200083B
:102110003B2200083B2200083B2200083B2200082B
:102120009DEB0008B1EB0008C5EB000879EA000858
:102130003B2200083B2200083B2200083B2200080B
:102140003B2200083B2200083B2200083B220008FB
:102150003B2200083B2200083B2200083B220008EB
:1021600072B6264880F30888254880F309882548F8
:1021700025490860022080F31488BFF36F8F02F0B6
:10218000FDF80CF0C3FC4FF0553020491B4A91423A
:102190003CBF41F8040BFAE71D49194A91423CBF84
:1021A00041F8040BFAE71B491B4A1C4B9A423EBFFD
:1021B00051F8040B42F8040BF8E700201849194ABB
:1021C00091423CBF41F8040BFAE70AF04FFF0AF0D6
:1021D0004BFF154C154DAC4203DA54F8041B8847ED
:1021E000F9E706F0F7FA124C124DAC4203DA54F854
:1021F000041B8847F9E70AF038BF000000040020FC
:10220000000C00200020000808ED00E00000002085
:102210000004002004170108000C0020440F0020D7
:10222000480F002080320020602100086021000853
:10223000602100086021000892E700F000F8FEE746
:102240002DE9F04FC1F80CD0C3689D46BDE8F08F72
:10225000002383F311882846A04700200BF050FA92
:10226000FEE70BF0B9F900DFFEE7000053B94AB909
:10227000002908BF00281CBF4FF0FF314FF0FF308E
:1022800000F062B9ADF1080C6DE904CE00F006F87B
:10229000DDF804E0DDE9022304B070472DE9F047E2
:1022A0008C46154604461E46089F002B40F0CB8006
:1022B0008A4248D9B2FA82F149B1C1F120030CFA3D
:1022C00001FC20FA03F38D4043EA0C0C8C404FEAEA
:1022D000154EBCFBFEF8A8B20EFB18CC08FB00F9AB
:1022E000230C43EA0C43994529D9EB1808F1FF3236
:1022F00004D2994502D9A8F102022B44A3EB0903A9
:10230000B3FBFEFC0EFB1C330CFB00F0A4B244EA52
:102310000344A04215D92C190CF1FF3304D2A0427A
:1023200002D9ACF102032C44241A43EA02401FB143
:102330000023CC403C607B603146BDE8F0874246DC
:10234000DCE76346F0E7002A73D0B2FA82F3DBB32E
:102350001E4602FA06F5C6F1200321FA03F24FEAFF
:10236000154EB14020FA03F30B43B2FBFEF100FA25
:1023700006F40EFB112CA8B201FB00F81A0C42EA7D
:102380000C42904557D9AA1801F1FF3C04D2904560
:1023900002D9A1F1020C2A44A2EB0802B2FBFEF121
:1023A0000EFB112248439BB243EA0243984244D9B0
:1023B000EB1801F1FF3203D2984201D98A1E2B4457
:1023C0001B1A42EA0C4201E08B1A01224FEA154E19
:1023D000B3FBFEFCA8B20EFB1C330CFB00F8210C77
:1023E00041EA034398452AD9EB180CF1FF3104D296
:1023F000984502D9ACF102012B44A3EB0803B3FBCF
:10240000FEFC0EFB1C330CFB00F0A4B244EA0344B8
:10241000A04216D92C190CF1FF3304D2A04202D9E4
:10242000ACF102032C44241A43EA0140314616461B
:102430007DE71F268DE78C46AEE70A46C0E761467A
:10244000DBE76346EFE78B4206D917B90026304633
:1024500072E7C7E90001F9E7B3FA83F686B98B4260
:1024600001D3824207D8841A61EB030301209C4602
:102470001FB9002660E73046FAE7C7E9004CF8E7E5
:10248000C6F1200CB34022FA0CF41C434FEA144965
:1024900021FA0CF3B3FBF9F820FA0CF5B14029430B
:1024A0001FFA84FE00FA06F509FB183008FB0EFA45
:1024B0000B0C43EA00439A4502FA06F240D9E318AE
:1024C00008F1FF3004D29A4502D9A8F10200234452
:1024D000A3EB0A03B3FBF9F809FB183308FB0EFE64
:1024E00089B241EA03418E452CD9611808F1FF33C6
:1024F00004D28E4502D9A8F10203214443EA0040E8
:10250000A0FB0298A1EB0E014145CE46434602D303
:1025100006D14D4504D2B9EB020E68EB0403013835
:10252000002FA6D0B5EB0E0261EB030101FA0CFC03
:1025300022FA06F34CEA0303F140C7E9003198E7B9
:102540004046C5E74346D9E7704700BF30B587B07E
:1025500001A90C460A221F4B186920F0605018612F
:10256000186940F060501861586B20F01F005863E4
:10257000586B40F009005863986840F480009860F8
:1025800018688007FCD5D86C013A92B224F8020B87
:10259000002AE1D109200A460023148832F8025F9C
:1025A0000133AC429BB284BF22F8025C14808342A8
:1025B000F3D1013B98B20028EDD1082331F8022F66
:1025C000013B9BB21044002BF8D1C0F3CF0007B001
:1025D00030BD00BF0024014030B587B001A90C46D2
:1025E0000A221F4BD86820F46000D860D86840F4F5
:1025F0006000D860586B20F01F005863586B40F0A3
:1026000011005863986840F480009860186880074B
:10261000FCD5D86C013A92B224F8020B002AE1D121
:1026200009200A460023148832F8025F0133AC42C5
:102630009BB284BF22F8025C14808342F3D1013B39
:1026400098B20028EDD10123013331F8022F9BB25B
:10265000092B1044F8D1C0F3CF0007B030BD00BF44
:102660000024014041F23602314B1B889342314A2B
:1026700006D8B3F5617F07D22F49896889052CD523
:1026800064231370107870476FF4486C03EB0C01EF
:10269000632904D81421B3FBF1F3A03BF1E7A3F6BF
:1026A000E5416329F6D9A3F64951E52908D81E2149
:1026B000A3F648534B43E621B3FBF1F30A33E0E7BB
:1026C000A3F62F61812908D81421A3F62E634B436A
:1026D0008221B3FBF1F32833D3E76FF46B60191851
:1026E000A92908D81421A3F56B634B43AA21B3FB96
:1026F000F1F33C33C5E7A3F65B71312906D80A2113
:10270000B3FBF1F36FF49C710B44BAE7A3F68D7140
:10271000A92908D80E21A3F68C734B43AA21B3FB39
:10272000F1F35533ADE7B3F5486FABD00023A8E71D
:10273000622B0020602B0020000C0140024AD3696C
:1027400043F00063D361704700100240024AD3692E
:1027500043F08053D361704700100240024A13686F
:1027600043F48073136070470070004008B5194B44
:1027700019491A686FF311021A605A6822F400327C
:102780005A60DA6822F40032DA609A6822F4003281
:102790009A604B6843F010034B604B689806FCD579
:1027A000FFF7CCFFFFF7D2FFFFF7D8FF4B6843F0EE
:1027B00010034B600023CB614B6823F010034B6088
:1027C000054B5A689206FCD55A6822F010025A60EE
:1027D00008BD00BF0004014000280040F7B51E46B8
:1027E0004FF6FF730193A5230B705A234B70002300
:1027F0000C46154602278870CB700A71E11901A8B2
:10280000013700F012F8052FF8D10722731E154486
:10281000AA4205D3019B1A0A6271A37103B0F0BDED
:1028200013F8011FA1540132F2E710B502680B78CA
:102830004AF201045340082243F30001013A2140C7
:1028400012F0FF0281EA5303F6D1036010BD0000CD
:1028500000230B4A13700B4A13700B4A13700B4A78
:1028600013700B4A13700B4A13700B4A13700B4A08
:1028700013700B4A13700B4A13700B4A1370704796
:10288000EC290020E2290020E1290020E029002095
:10289000DF290020DE290020DD290020DC2900209E
:1028A000DB290020DA290020D9290020030943EA86
:1028B00000108300C0F3850000F0330023F03303E1
:1028C00003435800C3F3460303F0550300F0AA0086
:1028D000184370470123034A834011880B43138038
:1028E000704700BF9A2800200123034A83401088C4
:1028F00020EA0300108070479A28002001F00703A7
:1029000030B5C908012502EB810200219D40013A42
:1029100012F8014F20FA01F343F3000363402B4008
:1029200001315C4004291470F2D130BD002210B591
:1029300000F00704C00801EB800110468B5CE34007
:1029400003F00103934001321843042AC0B2F5D1C9
:1029500010BD00000246C0F30723052B084682B0D5
:10296000D1B209D80E290DD8C3EB03131944064A76
:1029700089B202B0FFF7C2BF0433DBB2012B01D82A
:10298000024AF6E702B0704745280020412800209F
:10299000C0F30723052B82B0C0B209D80E280DD88A
:1029A000C3EB03131844074980B202B0FFF7BEBF60
:1029B0000433DBB2012B01D80349F6E7002002B053
:1029C000704700BF4528002041280020F0B50D4B7E
:1029D0000D4C1B7826780D4CB34201D10020F0BD80
:1029E00004EBC3056F788F4206D114F83370874229
:1029F00002D16D79954203D1013303F00703EBE770
:102A00000120ECE79F2800209E280020A02800201D
:102A1000054B064A1B7812789A4200D17047013361
:102A200003F00703F8E700BF9F2800209E2800203E
:102A300010B509490B7823EA000010F0070408706C
:102A400009D1984207D0054B5B785B0703D5C008D6
:102A5000FFF74AFF0C7010BD9C28002020290020A1
:102A600070B5134B134D1878134B1B7818432B7804
:102A7000C0B28BB11843114B1B7823B1104B93F9A3
:102A80000030002B09DB06220E4B00211A449A422B
:102A900006D109B100232B7070BD1E220A4BF4E74A
:102AA0004C1C13F8016BE4B2002E18BF2146EEE770
:102AB00095280020962800209D280020880E0020C0
:102AC000202900209A1200207A120020024A13784E
:102AD00023EA00031370704795280020CBB2C1F39E
:102AE0000721052982B00ED80E2B1FD803281FD826
:102AF0005A22C1EB011102FB001119440D4B33F8AE
:102B0000110002B07047FD2906D17BB903280FD808
:102B1000094B33F82000F4E7FC2907D133B9032827
:102B200006D8054B03EB80035888EAE70020E8E766
:102B30000120E6E74C0801081C0B0108E7284FD8E4
:102B4000DF2807D8312864D00ED8292857D02A2862
:102B500066D07047A0F1E003072B41D8DFE803F00F
:102B60001540232831403C41392804D0822802D026
:102B700035283FD07047324B1A7892071FD15B78C7
:102B800013F0080F18BF292070472D4A1378D90772
:102B90004DD4527812F0010F22D013F0100F14BF51
:102BA0000020E3207047264B1B7813F0040FF3E757
:102BB000234A137859073CD45278D207EDD5E02048
:102BC00070471F4B5A7891070AD51B7813F0100FE6
:102BD00014BF0020E7207047194B1B781A07F5D463
:102BE0007047174A1378190725D452789107EDD505
:102BF000E4207047124B1B7813F0200FC2E7104BF4
:102C00001A78920619D45B7813F0080F18BF392090
:102C100070470B4B1B7813F0400F18BF2A207047EA
:102C2000074B1B7813F0400F18BF31207047392035
:102C30007047E2207047E62070473520D0E700BF9C
:102C40002029002030B52F4D2B785A0711D500F0E0
:102C5000140100F018020C1F6142A2F1080C61413E
:102C6000DCF1000242EB0C0280F00C04914218BF30
:102C70002046190713D500F0140400F01801A4F140
:102C8000140CA1F11802DCF1000444EB0C045142D5
:102C9000514180F00C02D2B28C4218BF10466D78C0
:102CA000E90713D500F0110400F0180104F1FF3C0E
:102CB000A1F10802DCF1000444EB0C045142514143
:102CC00080F00902D2B28C4218BF1046AA0711D573
:102CD00000F0110400F01801A4F111025442A1F116
:102CE00018055441694280F009026941D2B28C4210
:102CF00018BF104600F0E70213F0100F18BF10467F
:102D000030BD00BF2029002038B5FFF717FFB0F510
:102D1000A44F04463FD2B0F5A04F80F0A680DF2834
:102D200016D8CC2800F28680A7280AD8A42874D800
:102D3000012804D0031F9BB2A12B28BF00242046EA
:102D400038BDA0F1A8039BB21A2B6BD90024F6E77B
:102D5000B0F5804F16D2B0F5005F80F09880E7287C
:102D6000EDD9A0F580739BB2B3F5F85FEED2C0F356
:102D70000720FFF767FF0546E0B2FFF7DFFE40EAF6
:102D80000524DCE7C0B2FFF7D9FE04F470642043E9
:102D900040F42044D3E7B0F5A54F21D245F25F239C
:102DA000984251D845F23F2398420ED845F21F234E
:102DB000984242D8012300F00304A340C0F38502E7
:102DC00043EA421343F40D44B9E7012300F003043E
:102DD000A340C0F3820243EA421343F40C44AEE73B
:102DE00045F2BF2398420AD845F29F23984200F04B
:102DF0001F0034D84AF2F40343EA00249FE7A0F509
:102E0000A543403B9BB21F2BA0D8040204F4F85406
:102E100044F4204444F0F00491E7A0F1240444F485
:102E200080448CE71F4B5834E4B233F8144044F428
:102E3000884484E740F4A04481E74AF2F10300F0BB
:102E40001F0443EA04247AE7012300F00304A340AB
:102E5000C0F3820243EA421343F40A446FE7FFF7E8
:102E6000F1FE040244F4005469E700F01F00FFF78C
:102E7000E9FE03B21A0112B210F0100F18BF134688
:102E8000C4F3431443EA042343F4104457E7C0F364
:102E90000420FFF7D7FE0546E0B2FFF74FFE40EAF9
:102EA0000524DFE72C0B01087FB50F24104BADF88C
:102EB00004001D880F4B1B881D43ADB245FA04F377
:102EC000DB0705D4013CF9D20026304604B070BDC2
:102ED000BDF80430E6B2ADF80C3003993046FFF788
:102EE000FDFDFFF711FF80B20128EBD0EDE700BF39
:102EF0009A2800209828002013B502884379ADF85D
:102F00000420019873B169B1FFF7CEFF0446014672
:102F10000198FFF71FFD2046019902B0BDE810405F
:102F2000FFF7DCBDFFF734FD0446F4E71FB5ADF84D
:102F300004000198FFF7B8FFBDF80430ADF80C307D
:102F40000399FFF7CBFD05B05DF804EBFFF7DCBE9E
:102F500008B503792BB30088FFF7E8FFC3B2C0F3CD
:102F60000330062812D094BF0E30063000F00F0058
:102F7000012812D8F02B12D004D8E72B8CBF0020E8
:102F8000012008BDF43B58425841FAE7F12B18BF25
:102F9000E72B94BF01200020F3E70020F1E7012098
:102FA000EFE71846EDE7002070470346DA68084669
:102FB000511C10B4D96019698A4207D21C681CB12F
:102FC0005968234610BC18479B68985410BC70473A
:102FD000014B1B68184700BF040C00202DE9F04787
:102FE0001F46089B054603F0020A9B0789461446C4
:102FF000D0F80C800FD04C444C450ED1BAF1000FE4
:1030000015D1BDE8F08720212846FFF7CEFF013615
:10301000BE42F8D3EFE71646FAE7284614F8011D3A
:10302000FFF7C3FFE8E720212846FFF7BEFFEB6864
:10303000A3EB0803BB42F6D3E3E700002DE9F0431E
:103040008BB09646DDE91285149CF1B9220517D4A0
:10305000302201218DF8082024F01004A7073DD468
:1030600004F00102002D37D0002A37D0BEF1000F46
:1030700002D114F00C0F00D0013D0A46302625E0A5
:10308000102BEBD124F01004E8E714F0200F14BF4C
:10309000412261220F4600210DF1080C0A3AB7FBCC
:1030A000F3F903FB1976092E94BF3036B618BB42EC
:1030B00001F101018CF80060D0D820294F460CF1B5
:1030C000010CECD1CAE702AFBE540132954201D9DE
:1030D000202AF8D1302606E0002ACED10A46F9E7A8
:1030E00002AFBE540132904501D9202AF8D1082BF5
:1030F00003D1914238BF24F0100442F2100634424A
:103100003CD026051FD4F2B1904501D095421AD18A
:10311000914201D2013A16D02B4EDE40F70724D55A
:1031200091424DD2102B02F1FF3212D1A60632D4B9
:10313000202A13D120222B46009402A9FFF74EFF2C
:103140000BB0BDE8F083102BF0D0022B0DD1202A5C
:10315000F0D002F1280362216B4403E0782102F1F0
:1031600028036B4403F8201C0132202AE2D03021CE
:1031700002F128036B4403F8201C0132202AD9D025
:10318000BEF1000F0ED02D2102F128036B4403F88D
:10319000201C0132CFE7202ACCD002F1280358218D
:1031A0006B44DFE7610704D502F128032B216B4450
:1031B000EDE72307BFD502F1280320216B44E6E7A2
:1031C000102BC4D1B2E700BF040001002DE9F04F7D
:1031D00080460E46154687B03178A9B9D8F8003038
:1031E0006BB9D8F8102052B1D8F8081039B1D8F816
:1031F0000C309A4298BF02F1FF330022CA54D8F82B
:103200000C0007B0BDE8F08F252906F1010603D0B8
:103210004046FFF7CAFEDFE7002406E02D2B19D059
:10322000302B23D144F001041646324612F8013BFC
:103230002B2B12D0F2D8202B12D0232B13D02A2BD9
:1032400058D155F8047B1646002FBCBF44F0020449
:103250007F4217E044F00204E6E744F00404E3E7A9
:1032600044F00804E0E744F01004DDE7A3F1300186
:103270000929E4D83246002713781646A3F1300115
:10328000092930D933782E2B3FD1737844F4006468
:10329000A3F13002092A35D84FF0000A0A20721C27
:1032A00013781646A3F13001092925D9334613F8BE
:1032B000012B6C2A39D031D8682A3DD06A2A45D0F2
:1032C00016F8011B7829A3D8632942D8622900F097
:1032D0008A80632900F0B380252999D0582997D195
:1032E00044F020047DE00A2101FB07330132A3F101
:1032F0003007C1E70027C5E700FB0A330132A3F11D
:10330000300ACDE72A2B03D001364FF0000ACDE773
:1033100055F8043B023623EAE37AC7E7742A01D062
:103320007A2ACDD144F400740BE072786C2AF9D17A
:1033300044F4C0640236C3E77278682A03D044F0CC
:1033400080041E46BCE744F0C004F3E744F4806404
:10335000F7E70122A1F16403DBB29A407F4B1A40E8
:1033600013D1732900F0938070297FF451AF55F881
:10337000041B44F4005444F00104002940F0E380AD
:103380000A230522764900948AE0642901D069293C
:1033900022D144F480440A2324F01004220548BFBB
:1033A00024F00104600404F480622AD5002A7FF42A
:1033B00013AFA10505F1040919D5296800294FEAC1
:1033C000D17202940197CDF800A0B8BF494240469F
:1033D000FFF734FE4D46FFE66F2906D0DBD978298A
:1033E000D9D11023DAE70223D8E70823D6E762060B
:1033F00002D595F90010E1E72006DED5B5F90010F9
:10340000DCE7002A7FF4E8AEA10524F00C0005F10A
:10341000040905D502900197CDF800A02968D6E7E8
:10342000620606D52978002202900197CDF800A007
:10343000CDE7296814F0800F18BF89B2F3E714F0C4
:10344000020422D04FF00109404615F8041BFFF793
:10345000ACFD002C3FF4C0AE4F457FF6BDAE202141
:10346000404609F10109FFF7A0FDF5E7202140469C
:10347000FFF79BFD09F10109B945F7D307F10209EF
:10348000002F18BFA9F10109DEE7A146F2E755F8C0
:1034900004BBBBF1000F07D13B4606223149009423
:1034A0004046FFF79BFD97E6BAF1000F14BF524666
:1034B0006FF00042D9465A4499F8001009B14A45C4
:1034C0000DD114F40063A9EB0B09049302D0D1458C
:1034D00028BFD14614F0020415D14A4609E009F18B
:1034E0000109E9E7202140460592FFF75EFD059AB4
:1034F00001329742F6D8A7EB09024F4538BF0022A8
:1035000009F1010991440BF1FF3204E040460592B4
:10351000FFF74BFD059A12F8011F39B1049B002BF0
:10352000F4D0AAEB02001BEB000FEFD1002C3FF40C
:1035300053AE4F457FF650AE2021404609F10109B8
:10354000FFF733FDF5E70A23404601930294102369
:10355000CDF800A0FFF772FD3EE600BF2108120083
:10356000A9110108A211010830B50E4C2379B3B995
:10357000302282F311880C490C48CA698B60556867
:103580002843506055680A4828435060094A13612F
:1035900002220A7183F311880120207130BD0220BC
:1035A000FCE700BF48240020502400202301674589
:1035B000AB89EFCD002002400A4A13797BB130235A
:1035C00083F311880849C869036943F080030361E4
:1035D00001200023087183F31188137170470220C2
:1035E000704700BF4824002050240020094B73B5C9
:1035F0001D68CB43ADF80630074B4119186802220D
:103600000368DC680DF10603A047B0FA80F04009BA
:1036100002B070BD080C00207024002038B50D4B9E
:103620000D461C680C4B0444186803685B68984797
:1036300043690120195B0023084C094A207013706C
:10364000237014781CB1184613702B8038BDCB43FF
:10365000FBE700BF080C002070240020C8120020E7
:10366000C9120020084A1378032B09D8012161F3FD
:1036700087031370D378C82B84BFC823D3707047D7
:10368000532BF7D91421F2E7D0250020064B1B78E5
:10369000C3F30002DB0706D4044B5A701A709A7009
:1036A0001A71DA705A717047D0250020D825002091
:1036B000044B587019709A701871D9705A71FFF7CD
:1036C000E5BF00BFD8250020012810B501D8C0B241
:1036D00010BDB0F5F75F88BFFF224FF001019EBF1C
:1036E00042090832D2B28B185B1003FB03F4A4B278
:1036F000A04206D2013BDAB29142F4D90139C8B2F4
:10370000E6E7FF2B02D00133D9B2F5E71846DFE731
:1037100010B5044610B9C90FC80110BD80EAE072A7
:10372000A2EBE07212B2002902EB01030DDB891A51
:10373000490191FBF3F1C1F12001C8B24342DBB270
:1037400030EA240028BF1846E7E75B01521A93FBD2
:10375000F2F3C3F16003D8B2F0E70000144B84B079
:1037600003EB4103E42193F85A3001904B43C2EB41
:1037700013231C33002BC0F30720B8BF5B42A0EB20
:10378000C3031BB223EAE373434300201B128DF8EB
:103790000530019BDAB262F30700C3F3072262F33C
:1037A0000F20C3F3074363F3174004B0704700BF13
:1037B0009E060108144B84B003EB4103E42193F807
:1037C0005A3001904B43C2EB13231C33002BB8BF7C
:1037D0005B42DB00C3F1FF031BB2C0F3074023EAE7
:1037E000E373434300201B128DF80630019BDAB2CD
:1037F00062F30700C3F3072262F30F20C3F307430A
:1038000063F3174004B070479E06010830B585B0D9
:10381000C0F3072501901046EC1AFFF779FFC0EBC3
:10382000801300EB830004440020E4B26C432412B4
:103830008DF80540019BDAB262F30700C3F307225B
:1038400062F30F20C3F3074363F3174005B030BDA5
:1038500030B585B0C0F3074501901046EC1AFFF76C
:1038600057FFC0EB801300EB830004440020E4B258
:103870006C4324128DF80640019BDAB262F3070014
:10388000C3F3072262F30F20C3F3074363F3174028
:1038900005B030BD30B585B0C0F3072501909DF867
:1038A00020001B1A1046EC18FFF732FF241A0020E4
:1038B000E4B26C4324128DF80540019BDAB262F346
:1038C0000700C3F3072262F30F20C3F3074363F338
:1038D000174005B030BD30B585B0C0F30745019045
:1038E0009DF820001B1A1046EC18FFF711FF241A50
:1038F0000020E4B26C4324128DF80640019BDAB23A
:1039000062F30700C3F3072262F30F20C3F30743F8
:1039100063F3174005B030BD84B0019000208DF8EE
:103920000420019BDAB262F30700C3F3072262F3BB
:103930000F20C3F3074363F3174004B07047000040
:1039400084B0019000200B4B03EB410393F85A30F5
:103950009B1A8DF80430019BDAB262F30700C3F3BF
:10396000072262F30F20C3F3074363F3174004B049
:10397000704700BF9E06010884B0019000200B4BE9
:1039800003EB410393F85B309B1A8DF80430019BE5
:10399000DAB262F30700C3F3072262F30F20C3F326
:1039A000074363F3174004B0704700BF9E06010849
:1039B0001FB5124C2C3104EB4104E3780190A3F1C4
:1039C0002001C3F120035BB249B231EA210128BFD3
:1039D0001946A3789B1A0B44034400208DF8043049
:1039E000019BDAB262F30700C3F3072262F30F20F0
:1039F000C3F3074363F3174004B010BD9E060108EC
:103A000084B0019000209DF8102003EB430302EBEB
:103A100053038DF80430019BDAB262F30700C3F35D
:103A2000072262F30F20C3F3074363F3174004B088
:103A300070471FB5019048B2494249B230EA2000B0
:103A400028BF08465243C0F1380000FB002080B276
:103A50001C46FFF739FE00EB4000044400208DF8BF
:103A60000440019BDAB262F30700C3F3072262F35A
:103A70000F20C3F3074363F3174004B010BD1FB515
:103A8000019010461C46FFF743FE20448DF80400C9
:103A90000020019BDAB262F30700C3F3072262F34E
:103AA0000F20C3F3074363F3174004B010BD1FB5E5
:103AB00001909DF818001C1A1046FFF729FE241AE1
:103AC00000208DF80440019BDAB262F30700C3F3D3
:103AD000072262F30F20C3F3074363F3174004B0D8
:103AE00010BD000084B0019003F12C00104B03EBDB
:103AF0004003D8789B782038703B4B4302FB003260
:103B000000209DF80430002AB8BF7F3203EBE21397
:103B10008DF80430019BDAB262F30700C3F3072289
:103B200062F30F20C3F3074363F3174004B07047F9
:103B30009E06010884B0019003F12C00104B03EBAA
:103B40004003D8789B782038703B4B4302FB00320F
:103B500000209DF80430002AB8BF3F3203EBA213C7
:103B60008DF80430019BDAB262F30700C3F3072239
:103B700062F30F20C3F3074363F3174004B07047A9
:103B80009E06010830B503F12C04174B85B003EBFA
:103B900044039C78DD78A4F17003C4F1700464B22E
:103BA0005BB233EA230328BF2346C3F138034B43F8
:103BB000203D02FB053212EB420248BF7F320190EA
:103BC00000EBE2108DF804000020019BDAB262F3F2
:103BD0000700C3F3072262F30F20C3F3074363F325
:103BE000174005B030BD00BF9E06010870B5944D6A
:103BF0002B6813F0010610D16C6830460122214673
:103C0000904BFEF7EBFD01202146073004F0D6FD76
:103C100001232A68B3401343C1E099010ED48A4AB4
:103C2000884B12786C6882F0010219201A702146C4
:103C30000122FEF7D3FD19260120E5E7DA0109D4B8
:103C40006C681820012221467E4BFEF7C7FD18261E
:103C50000120D9E713F4000208D16C68172021462F
:103C6000784BFEF7BBFD17260120CDE79E0709D450
:103C700001226C6810462146744BFEF7AFFD01200F
:103C80000646C1E75C0709D46C6802200122214680
:103C90006F4BFEF7A3FD02260120B5E7180712D4EB
:103CA00008F08CF86B4B6C689A68664BC2F3402244
:103CB00082F0010203201A7021460122FEF78EFDD8
:103CC00003260120A0E7D9060ED408F077F85D4B53
:103CD0006C6800F001001870012204202146FEF7F4
:103CE0007DFD042601208FE79A0612D45A4B6C689A
:103CF0009B6805205B0754BF0122584B214648BFF3
:103D00001A78504B05261A700122FEF767FD012034
:103D10007AE75E0609D46C68062001222146504BE2
:103D2000FEF75CFD062601206EE713F080021AD133
:103D30004C4B1B78022B0DD14B490B70414B1A7029
:103D40006C680720012221463E4BFEF747FD0726FF
:103D5000012059E723B9444A13703A4A1370EFE738
:103D6000012BEDD1F7E7DC0509D46C6808200122AE
:103D700021463E4BFEF732FD0826012044E713F4AE
:103D8000006208D16C680B2021462E4BFEF726FD01
:103D90000B26012038E7D80403D443F480532B606A
:103DA00070BD13F4005208D16C680D202146254BDC
:103DB000FEF714FD0D26012026E713F4804208D1FA
:103DC0006C680E2021461F4BFEF708FD0E260120D1
:103DD0001AE713F4004208D16C680F202146194BF2
:103DE000FEF7FCFC0F2601200EE7990509D46C684C
:103DF000092003222146154BFEF7F0FC092603207B
:103E000002E75A0509D46C680A20042221460F4BA8
:103E1000FEF7E4FC0A260420F6E69B020FD4144ABF
:103E2000084BD27A6C68003A18BF012215201A702C
:103E300021460122FEF7D2FC15260120E4E6FEE72A
:103E4000900E0020FE290020FD290020FC290020E2
:103E5000FB2900200010014000140140FA29002035
:103E6000F9290020F8290020F7290020F629002050
:103E7000E52B002038B50BF01FFB3F4C90B10BF049
:103E800007FB3E4A1378042B52D8DFE803F0030DFA
:103E90001C263200552805D101231370384A1370AF
:103EA000384B1870207838BD5528FBD003283FD1F7
:103EB0003349354B18700B785D1C0D703149C8546F
:103EC00002231370EEE7022832D82D490B785D1CCF
:103ED0000D702C49C8540323F3E7042828D8284937
:103EE0002A4B18700B785D1C0D702649C8540423AA
:103EF000E7E7234D29784B1CDBB22B70214D68542A
:103F00002149097801319942CCDAAB78012B13D0E1
:103F1000022B1DD063B91E4B19681C4B03291B785B
:103F200008D8994204D1B0FA80F01A4B40091870B1
:103F30000023C6E7042BF5E7154B1968134B03293B
:103F40001B7803D89942F3D12070F1E7042BFAE7EC
:103F50000F4B1B68032BEBD90C4B1B78042BE7D1C1
:103F6000AA2803D101210C4B1970E1E7BB28DFD14E
:103F70000021094BF8E700BFD92B0020D82B0020E7
:103F8000D72B0020AF2B0020AE2B0020AD2B002024
:103F9000B80E0020E42B0020AC2B002038B5064CD6
:103FA000256808F045F8401B642804D9FFF76EFB2C
:103FB00008F03EF8206038BDC41200204FF4805253
:103FC00008B5002103480CF01CF841F20802024B2E
:103FD0001A6008BD481400204824002070B52E4DFA
:103FE00090B00BF055FA2B78032B48D8DFE803F09C
:103FF000020C1D27552805D10123284A2B70137068
:10400000274B187010B070BD5528FBD0831EDBB253
:104010001E2B34D8214A234B18701378591C117069
:104020001F4AD05402232B70ECE70A2827D11B4AE1
:104030001378591C11701A4AD0540323F3E7174917
:10404000174E0A78531CB054164ADBB214780B7022
:10405000621C9A42D6DA4022002168460BF0D1FF5A
:104060006A4600230136D9B28C420AD82346FF2182
:10407000C4F140029A420ADC684608F0E9FF0023D6
:10408000D1E716F8011F013302F8011BEBE70DF829
:1040900003100133EEE700BF8E2B00208D2B002094
:1040A000652B0020642B002010B5184B1B78C3B182
:1040B000174B93F90030002B13DAFEF7D1FC154CA7
:1040C00020226070144920460CF0F2F8E8B1214635
:1040D000202211480BF0F0FF2046BDE8104007F009
:1040E000A5BEFEF7BDFC0D4C082220700C492046F1
:1040F0000CF0DEF848B12146082209480BF0DCFF3D
:104100002046BDE8104007F061BE10BD880E0020BB
:104110002029002078120020192800209812002061
:104120003928002028B1034B1A7810431870FFF784
:10413000BBBF70479528002008B528B1FEF7C6FC24
:10414000BDE80840FFF7B0BF08BD000028B1034B31
:104150001A7810431870FFF7A7BF70479D280020FA
:1041600030B1044A137823EA00031370FFF79CBFB1
:10417000704700BF9D280020A0F5F04330B41F4CCD
:10418000233B6078A178E278072B35D8DFE803F08D
:10419000040A0C13181F242E03300023C0B230BCB5
:1041A00007F0BCBB0338F8E7FB2928BFFB2104312B
:1041B0000023C9B2F3E7042938BF04210439F7E723
:1041C000FB2A28BFFB2204320023D2B2E7E7042AED
:1041D00038BF0422043AF7E72079FB2828BFFB20E8
:1041E0000430002130BCC0B207F016BC207904288E
:1041F00038BF04200438F4E730BC7047E8280020BA
:104200000020084710B500240E4B1C7007F0F6FE86
:10421000204607F03DFE204607F054FE0A4B1C7076
:10422000FFF742FF2146062208480BF0EAFE084B42
:104230001C70084B1C70084B1C70BDE8104008F047
:1042400079BE00BF952800209D28002078280020F6
:1042500077280020762800207528002038B5084CE3
:10426000084D2368AB4209D0FFF7CCFF064B22680C
:104270001A6007F0A3FD054B2560187038BD00BF1C
:10428000DC2B0020A40E0020E02B0020D92B0020E6
:104290008318B3F5805F10B40C4605D80349014478
:1042A000204610BC0BF008BF10BC7047481400201B
:1042B000002307B501220DF107018DF80730FFF744
:1042C000E7FF9DF8070003B000BD0320FFF7F0BF34
:1042D000002307B502220DF10601ADF80630FFF705
:1042E000D7FFBDF8060003B000BD07B504220023C8
:1042F0000DEB02010193FFF7CBFF019803B000BD66
:104300000F2008B5FFF7F1FF0D28024605D1BDE8E3
:10431000084025200449FFF7BBBF0D22BDE8084037
:10432000002101480BF06DBEE52B00200F4B10B5AE
:104330001B784BB10024002320461A46194601344D
:1043400007F0D8F9532CF6D1094B0A4A1B7812789A
:104350001343DBB213B1084B1B7833B9BDE81040EF
:104360001A461946184607F075BA10BDF028002005
:10437000F82900201E290020DA290020704708B5FE
:104380000346A0B3021FD2B2A02A05D807F0FAFD57
:10439000BDE80840FFF788BE00F12002D2B2072A2C
:1043A00007D800F0070301209840C0B2FEF78EFB4B
:1043B000EEE700F15B02D2B2022A04D8BDE8084061
:1043C000002007F065BD00F15802D2B21A2A04D8C5
:1043D000BDE80840002007F075BD3333DBB2122B77
:1043E00005D807F05FFCBDE8084008F0A3BD08BD94
:1043F00010B50446C0B2FFF7C2FFA4F1E003072BDB
:104400002046BDE8104094BF01490249FFF7F8BEBD
:10441000394100086141000810B5044600285AD00F
:10442000031FDBB2A02B27D82B4B1B787BB90023B3
:104430002A4A12F8011FA14218D00133062BF8D1E5
:10444000204607F05BFDBDE81040FFF72DBE244B72
:1044500093F90030002BEADA224B00F0070103EB5E
:10446000D0039A7801238B401A42E9D0204607F006
:1044700089FDFFF719FEE3E700F12003DBB2072B0C
:1044800008D80123184A00F007041178A3400B4311
:104490001370D8E700F15B03DBB2022B05D8BDE84F
:1044A0001040243880B207F0F3BC00F15803DBB2AF
:1044B0001A2B06D8BDE810400C4A32F8130007F05A
:1044C00001BD3334E4B2122C05D807F089FBBDE8F6
:1044D000104008F02FBD10BD880E0020991200205A
:1044E0002029002078120020952800202C0B01089C
:1044F00010B50446A0F1E003072B94BF0449054919
:10450000FFF77EFEE0B2BDE81040FFF785BF00BFB9
:10451000254100084D4100087FB5084B0A4601932C
:1045200000230293039304936FF00043014601A814
:104530000593FEF74BFE07B000BD00BFD12F00086A
:104540000FB407B504A951F8040B0191FFF7E4FF7C
:1045500003B05DF804EB04B07047000030B5294AA1
:1045600085B0C0F3074310F47F4FD25C0190C0F3D5
:10457000072543D00620FF239DF80440591B6043C4
:10458000B0FBF3F06FF05403434303EB440303EB3E
:104590004303DBB203FB05F4C3F1FF036B432412B7
:1045A0001B12C4F1FF04C3F1FF03514354435343AF
:1045B000091224121B1206281BD8DFE800F004069B
:1045C0001311161A040014461A460020D2B262F3E0
:1045D0000700E4B264F30F2061F3174005B030BD6B
:1045E000134622460C461946EFE71C4613460A4678
:1045F000F9E713460A4621461C46E6E711461446EB
:10460000E3E700BF51040108C82A28BFC82213B538
:104610008DF802208DF800008DF8011000981C46DE
:10462000FFF79CFFC0F30722C0F3074362702070BE
:10463000A37002B010BD0000F8B505460D4B04791B
:104640009E78DF7820463A4631460B4BFFF7DCFF79
:1046500004F17F00094B3A463146C0B2FFF7D4FF60
:10466000FFF714F8AB78DB074CBF013404F1FF34DB
:104670002C71F8BDD0250020D8250020DB25002096
:104680002DE9F04783784FF0000813F0010F14BFB5
:104690004FF0FF350125DFF884A0214FDFF884902B
:1046A000002404268AF801408AF800408AF8024073
:1046B0003A78224453B2022B24DD02F00103434531
:1046C0000BD199F803205346724399F8021099F8D8
:1046D0000100C2F38702FFF797FF013E2C44E7D1A8
:1046E00008F10103022B4FF001080AF1030AD7D1A8
:1046F000FEF7CCFF45453B780BD103B15D1E3D7005
:10470000BDE8F087023252B233EA230328BF1346D2
:10471000D5E7013303F00105F1E700BFD8250020FC
:10472000C0120020D025002013B50B4C2378DB07E6
:1047300010D501ABFFF768FF2378DB070AD59DF89A
:1047400006209DF804109DF8050002B0BDE8104059
:10475000FEF7AEBF02B010BDD025002038B505462B
:104760000479054B054A9978125D58780134FFF7B2
:10477000DBFF2C7138BD00BFD02500203C030108B1
:1047800038B505460479044B2046DA789978013427
:10479000FFF7CAFF2C7138BDD0250020064B1888C2
:1047A00000EB402200EB820000F5585019301880D1
:1047B00000EB1020C0B27047000C0020430658BF29
:1047C000034610B548BF80F0FF030E4C48BF03F00E
:1047D0000F02C3F3011304EB4301497854BF00F007
:1047E0000F0201324A4314F8133010F0800F03EB2C
:1047F0002213DBB2C3F10002D2B218BF134683F01A
:10480000800010BD340301082DE9F04FDFF8D8A077
:1048100089B083469AF8000007F01EF8334F344BF6
:10482000C4B21D883B79ADF810005B085D43314B85
:10483000C0F30729C5F3072503EB440603F5827887
:10484000E3B2994507D8B9F1540F8CBF002001207D
:1048500009B0BDE8F08F9AF8013018F804201A4228
:104860003FD096F85B2096F85A10203A02FB02F0EF
:10487000703901FB010080B203920291FEF724FF20
:104880000095034697F801C0B87897F803E04CEA22
:104890000020039A029940EA0E40D8478DF8140090
:1048A000C0F30723C0F307408DF816008DF81530CC
:1048B000059BADF818301B0C8DF81A300698FFF7E1
:1048C0004DFEC0F30721C0F307438DF81C008DF89F
:1048D0001D108DF81E30C2B2DBB22046C9B206F000
:1048E00009FF02360134ABE7280C0020E82800203D
:1048F000E02500209E0601082DE9F04FDFF8C0A05A
:1049000085B083469AF8000006F0A6FF2D4F2E4B87
:10491000C4B21D883B79ADF800005B085D432B4BAA
:10492000C0F30729C5F3072503EB440603F5827896
:10493000E3B2994507D8B9F1540F8CBF002001208C
:1049400005B0BDE8F08F9AF8013018F804201A423B
:1049500032D0BB78787897F803C096F85B2096F849
:104960005A1040EA0320203A70392B4640EA0C40A6
:10497000D8478DF80400C0F30723C0F307408DF833
:1049800006008DF80530019BADF808301B0C8DF842
:104990000A300298FFF7E2FDC0F30721C0F3074396
:1049A0008DF80C008DF80D108DF80E30C2B2DBB210
:1049B0002046C9B206F09EFE02360134B8E700BFB9
:1049C000280C0020E8280020E02500209E06010891
:1049D0002DE9FF47DFF89480824698F8000006F042
:1049E0003BFF234E234A337915889B0803FB05556B
:1049F000DFF88490C0F30727C5F30725C4B2E1B2FE
:104A00008F4206D8542F8CBF0020012004B0BDE88F
:104A1000F08798F8013019F804201A4223D0B278B0
:104A20007378F07843EA022343EA00402A46D047ED
:104A30008DF80400C0F30723C0F307408DF806008B
:104A40008DF80530019BADF808301B0C8DF80A304D
:104A50000298FFF783FDC0F30743C2B2C0F30721FA
:104A6000204606F047FE0134C9E700BF280C0020AD
:104A7000E8280020E0250020A20701082DE9F04FDA
:104A8000DFF8BC9089B0039099F8000006F0E4FECE
:104A90002C4F2D4B04461D883B79DFF8B0A09B08B6
:104AA0005D43C5F3072505F14000C0B2FFF786FE60
:104AB00080384FFA80FB2846FFF780FEA0F1800681
:104AC000C4F3072876B2E4B2E3B2984507D8B8F148
:104AD000540F8CBF0020012009B0BDE8F08F99F879
:104AE00001201AF80410114228D00095BA7878787D
:104AF00097F803C040EA02205946324640EA0C408B
:104B0000DDF80CC0E0478DF81400C0F30723C0F3B4
:104B100007408DF816008DF81530059BADF818305C
:104B20001B0C8DF81A300698FFF718FDC0F30743E9
:104B3000C2B2C0F30721204606F0DCFD0134C3E712
:104B4000280C0020E8280020E0250020A20701080A
:104B50002DE9F04FDFF8EC803B4D85B0834698F8A7
:104B6000000006F079FE2B794FF6FF760133FF2B1C
:104B700028BFFF23B6FBF3F6DFF8D0A0DFF8D09014
:104B8000ADF80000C0F30727C4B2E1B28F4206D8E7
:104B9000542F8CBF0020012005B0BDE8F08F98F89D
:104BA00001301AF804201A423AD099F80030294806
:104BB000013B5BB21A0635D5324629796B78013153
:104BC000FF2928BFFF215143AA78E87843EA02234E
:104BD000C1F30F2143EA0040D8478DF80400C0F329
:104BE0000723C0F307408DF806008DF80530019BC0
:104BF000ADF808301B0C8DF80A300298FFF7AEFCB8
:104C0000C0F30721C0F307438DF80C008DF80D1099
:104C10008DF80E30C2B2DBB22046C9B206F06AFD92
:104C20000134B2E7C25C8A420AD103F10C0209EBFB
:104C3000420292F801C092784CEA02229642BCD815
:104C4000013BB7E7280C0020E8280020A207010854
:104C500093250020A42500202DE9F04F4C4B8DB06A
:104C600082461878049106F0F7FD4A4BC4B21B78CF
:104C7000DFF824910293494BADF8200003EB440583
:104C800003F58273C0F307280393E3B2984507D86E
:104C9000B8F1540F8CBF002001200DB0BDE8F08F9B
:104CA0003B4B039A5B78125D1A422DD003223C499C
:104CB00009A80BF001FA56460023DFF8D8B00BEB39
:104CC0000A070299F2B2914221D899F8032053437E
:104CD0001B128DF82630099BADF828301B0C8DF87F
:104CE0002A300A98FFF73AFCC0F30721C0F30743C4
:104CF0008DF82C008DF82D108DF82E30C2B2DBB25D
:104D00002046C9B206F0F6FC01340235BDE717F8BB
:104D1000012F95F85A10387A891A95F85B20079375
:104D2000121A02FB02F001FB010080B2069205910B
:104D3000FEF7CAFC024699F8040006F10C0C01309B
:104D4000FF2828BFFF200BEB4C0C9CF801E09CF8DF
:104D500002C0079B4EEA0C2E0EFB00F08DF82630A9
:104D6000C0F30F2013460090069A05990998DDF8C4
:104D700010C0E047C0F307238DF82530C0F3074388
:104D80008DF826308DF82400DBB2013699E700BF9C
:104D9000280C002093250020E82800209E0601080A
:104DA000E928002084B0019000200F4B2C3103EB48
:104DB0004103D9789B782029A3EB010303EB43033C
:104DC0008CBF9B189B1A8DF80430019BDAB262F3FA
:104DD0000700C3F3072262F30F20C3F3074363F313
:104DE000174004B0704700BF9E060108F7B51A4B84
:104DF0001A4A0344527893F804310446134229D0E6
:104E0000174B9E78DD785978FFF7C8FC4FF4B472E1
:104E100001F1B403B3FBF2F702FB17335B1A48BF8F
:104E200003339B1000F0030003FB00118DF80160B9
:104E30008DF800108DF802500098FFF78FFBC0F33B
:104E40000743C2B2C0F30721204603B0BDE8F040DB
:104E500006F050BC03B0F0BD9E060108280C0020EF
:104E6000E828002013B5144B144A0344527893F8F1
:104E70000431044613421DD0FFF790FC0146FFF7B2
:104E80008DFC0F4B40F35700DB787F308DF800101E
:104E90008DF802308DF801000098FFF75FFBC0F33A
:104EA0000743C2B2C0F30721204602B0BDE810405C
:104EB00006F020BC02B010BD9E060108280C0020A0
:104EC000E828002070B5164C237843B3FFF718FA92
:104ED000144B3C255E790023237000200AF0D0FAA1
:104EE000013DFAD14FF47A7008F016FC55230E4CB0
:104EF000042E28BF0426237014230C49201D637040
:104F0000A570E6700BF0E4F92046162165750AF0ED
:104F1000C9FABDE870404FF4FA7008F0FDBB70BDEF
:104F2000F22B0020E52B0020BC0E0020740B0108A2
:104F3000002210B53C24134B1A7000200AF0A0FA8E
:104F4000013CFAD1104C42F2107008F0E5FB2268E7
:104F50000E4B9A4204D1FFF755F90D4B1B682360A5
:104F60004FF4FA6008F0D8FB55230A4A0421137065
:104F70000223537000239370D3701046BDE8104095
:104F80000AF090BAE42B0020DC2B0020A40E0020B5
:104F9000E02B0020BC0E002070B5044607F048F856
:104FA00001222D4B18602D4B1A702D4B1B78002BB6
:104FB00047D0062221462B480BF07AF980B1FFF743
:104FC00081FF2146062227480BF076F855200AF08B
:104FD00057FA06200AF054FA062122480AF062FA2B
:104FE000214D2C6807F024F8204B001B07281E7861
:104FF0002CD807F01DF8844228D007F019F8022EAB
:1050000022D0031B082B1DD00834241A002140F2A3
:10501000E730174E4FF47A720023E4FB0601FDF7E8
:1050200025F908F079FB07F003F8286007F000F88D
:10503000104B186006F0FCFF00220F4B18600F4B5E
:105040001A6070BD0120ECE7C820EAE7022EFBD011
:105050004FF44870E5E700BFA82B0020A62B0020E6
:10506000E42B0020A02B00209C2B0020A00E002071
:10507000A0860100982B0020942B0020902B00206C
:10508000F8B5044606F0D4FF0127274B1860274BDC
:105090001F70274B1B78002B3CD0FFF713FF5520C8
:1050A0000AF0EEF9234D03200AF0EAF92046032125
:1050B0000AF0F8F92C6806F0BBFF1F4B001B07280D
:1050C0001E782CD806F0B4FF844228D006F0B0FF3A
:1050D000022E22D0031B082B1DD00834241A0021D5
:1050E00040F2E730154E4FF47A720023E4FB0601DC
:1050F000FDF7BCF808F010FB06F09AFF286006F0F8
:1051000097FF0F4B186006F093FF00220D4B1860BD
:105110000D4B1A60F8BD3846ECE7C820EAE7022ECE
:10512000FBD04FF44870E5E7A82B0020A62B002009
:10513000E42B00209C2B0020A00E0020A086010064
:10514000982B0020942B0020902B00202DE9F0417B
:10515000044606F06DFF01262A4B18602A4B1E708C
:105160002A4B1B78002B41D0FFF7ACFE55200AF0EC
:1051700087F909200AF084F930460AF081F90821FC
:1051800020460AF08FF906F053FF214B00251860E6
:1051900006F04EFF1F4B204F1860204B3C681D60EF
:1051A00006F046FF1E4B001B072893F8008023D80B
:1051B00006F03EFF84421FD006F03AFFB8F1020F1E
:1051C00018D0031B082B13D008342946241A40F2A8
:1051D000E730144D4FF47A720023E4FB0501FDF72C
:1051E00045F808F099FA06F023FF3860BDE8F08131
:1051F0003046F6E7C820F4E7B8F1020FFAD04FF4D2
:105200004870EEE7A82B0020A62B0020E42B0020FE
:10521000982B0020942B00209C2B0020902B00200A
:10522000A00E0020A08601002DE9F041044606F002
:10523000FFFE4FF00108284B1860284B83F80080D0
:10524000274B1B78002B3CD0FFF73CFE55200AF083
:1052500017F915200AF014F9152120460AF022F951
:1052600006F0E6FE1F4B0025186006F0E1FE1E4B1F
:105270001E4E18601E4B34681D6006F0D9FE1D4B93
:10528000001B07281F7822D806F0D2FE84421ED0C9
:1052900006F0CEFE022F18D0031B082B13D00834C3
:1052A0002946241A40F2E730134D4FF47A72002356
:1052B000E4FB0501FCF7DAFF08F02EFA06F0B8FE71
:1052C0003060BDE8F0814046F6E7C820F4E7022FE1
:1052D000FBD04FF44870EFE7A82B0020A62B00204E
:1052E000E42B0020982B0020942B00209C2B0020E6
:1052F000902B0020A00E0020A086010010B50446CF
:10530000FFF7F6F82046BDE81040FFF771B800003F
:105310002DE9F041674D2B78B3B1674B1B789BB1FA
:10532000664B1B68022B3CD0032B3ED0012B3FD198
:10533000002290231146542006F0DCF9002353206C
:105340001A46194606F0D6F95D4B5E4E1B78347846
:10535000012B6BD12D785C4F002D4BD144F0020412
:10536000347006F065FE554B38601B68022B2ED05A
:10537000032B35D0012B40F09480544B1A78544BBA
:105380001B789A421FD990232A462946542006F0BA
:10539000B1F9002353201A461946BDE8F04106F042
:1053A000A9B9002390229021C5E700231A46FAE705
:1053B000002390221946532006F09CF90023542024
:1053C0001A461946BEE700231A461946DEE73F4B48
:1053D0001A783F4B1B789A42F5D90023902207E0B8
:1053E0003A4B1A783A4B1B789A42ECD92B462A460C
:1053F0009021CBE73D6806F01BFE401B013011D029
:105400002E4B44F002041B683470022BE5D0032BB2
:1054100005D0012B45D1002290231146B6E7002389
:105420001A46E5E724F0020434703AE0022B3ED13C
:105430002D78284FC5B944F00404347006F0F8FD07
:10544000224B29461A78224B38601B7853209A4207
:1054500088BF90222B4698BF2A4606F04BF92B4670
:105460002A462946542098E73D6806F0E1FD401B96
:10547000013018D0002390221946532044F0040430
:10548000347006F037F9002354201A46194606F006
:1054900031F9114C237823B17320FFF72FFF00233C
:1054A0002370BDE8F08124F004043470F1E724F0A7
:1054B0000604B9E7E42B0020F5290020B80E0020EF
:1054C000A00E0020F4290020F0290020EC29002063
:1054D0008D0E0020E8290020E42900202DE9F74363
:1054E000002401251A4F3B68A34203D8284603B085
:1054F000BDE8F083174E184B3068196803682144E3
:105500005B6998478146D6F80080D8F8003040465D
:105510009B6901A99847012809D049EA0000C0B257
:1055200001288CBF002505F001050134DBE740F2BE
:10553000E73C00210198DFF824E04FF47A72E0FBA9
:105540000EC100236046FCF791FE08F0E5F8DCE7A9
:105550000C0C002070240020100C0020A0860100FC
:105560002DE9F347FFF7BAFF002864D0FDF7FCFFF1
:1055700000240546314E20463188FEF737F80028D2
:1055800057D00234B4F5805F06F10206F3D141F240
:10559000010100201226DFF8A4C0294ADFF8A4E0A8
:1055A00001391CD16E4641F20807CDE9002E204694
:1055B0003188FEF71BF820B10234BC4206F1020626
:1055C000F5D14000C4B2012D01D1FDF7F5FF41F244
:1055D00008021D4B1A60204602B0BDE8F0871CF897
:1055E000013B4FEA4E195A40A2FB063806FB0E88D3
:1055F0004FEA421A49EAD26913EB0A0348EB090859
:105600004FEAC21A9B184FEACE194FEA02274EEB17
:10561000080849EA526913EB0A034FEA0E2E48EBD9
:1056200009084EEA126EDB1948EB0E0EBE44C21892
:10563000B6E70446C7E70446CDE700BF481400209C
:1056400025232284E49CF2CB48240020044B1B68D1
:10565000B3F5005F01D3FFF783BF0120704700BFA0
:105660004824002010B5074C01462068FDF7BEFF16
:1056700030B1236802332360BDE81040FFF7E6BF76
:1056800010BD00BF482400208318B3F5805F2DE9CA
:10569000F34704460E46154600F28B80464F0744FA
:1056A000394630460AF004FE002800F082802A467F
:1056B000314638460AF000FDFDF756FF4FF000086E
:1056C00082464FF00009012D2CD0E3072AD4B4F50F
:1056D000804F37D23378727843EA0223012B21D8E6
:1056E000002B0CBF6FF07F036FF05F03002043EAD5
:1056F000542363F30700630863F30F2080B2FFF7BE
:10570000B1FF012806D1023D02340236002DDAD164
:10571000FFF79CFFBAF1010F4BD102B0BDE8F04793
:10572000FDF74ABF3F2C0DD8307844F04003DBB280
:1057300043EA0020FFF796FF0128EBD1013D013439
:105740000136E3E7052D2F4628BF0527C4F30243A2
:1057500043EAC703CDE900893A4631468DF8003067
:105760000DF10300230A8DF801308DF802400AF094
:10577000A3FCBDF80000FFF775FF0128CAD1BDF8F2
:105780000200FFF76FFF0128C4D1012D0DD0BDF835
:105790000400FFF767FF0128BCD1032D05D9BDF830
:1057A0000600FFF75FFF0128B4D1ED1B3C443E44E7
:1057B000ACE702B0BDE8F08748140020F8B50D460C
:1057C00006461446D31D23F0070300AFADEB030DCF
:1057D00069462846FEF75CFD2246694630460AF0D7
:1057E00067FD20B1224631462846FFF74DFFBD46F2
:1057F000F8BD37B50C460546FEF75AFDA04207D066
:10580000012228460DF107018DF80740FFF73CFF04
:1058100003B030BD37B50C460546FEF759FDA04232
:1058200007D0022228460DF10601ADF80640FFF729
:105830002BFF03B030BD00000E4A10B5537804466C
:10584000C3F38001814213D060F3820353700420BC
:105850001188FFF7DFFF0220FDF7EAF8064B1B78FF
:10586000DB0705D52146BDE810400448FEF768BEB9
:1058700010BD00BF2029002094280020AF1101088E
:1058800037B50C460546FEF730FDA04206D004228F
:1058900028460DEB02010194FFF7F6FE03B030BD80
:1058A00010B504460D210F20FFF7EAFF2046BDE8A2
:1058B00010400D222521FFF781BF000070B504467E
:1058C000FEF7CCFC00223C25254B1A70002009F085
:1058D000D7FD013DFAD148F6B80007F01DFF631E61
:1058E000032B204E35D8042C34D1FEF709FD7479F2
:1058F000304644F0040474710425FFF7D1FF1A4BBD
:1059000055201C6009F0BCFD032009F0B9FD002002
:1059100009F0B6FD284609F0B3FD012009F0B0FDFD
:105920004FF47A7007F0F8FE552009F0A9FD032026
:1059300009F0A6FD002009F0A3FD284609F0A0FD0E
:10594000012009F09DFDBDE870404FF47A7007F02A
:10595000E3BE0124E5B203487571FFF7A1FFCEE76E
:10596000E42B0020E52B0020B80E002070B5044683
:10597000FEF774FC0022214B214D1A70631E032B8D
:1059800035D8042C34D1FEF7BBFC6C79284644F0A2
:1059900004046C710426FFF783FF3C25194B1C603F
:1059A000002009F06DFD013DFAD148F6B80007F07E
:1059B000B3FE5523144C154923701423201D637026
:1059C000A570E6700AF084FC16212046657509F082
:1059D00069FD4FF47A7007F09FFE2046162109F00A
:1059E00061FDBDE870404FF47A7007F095BE012468
:1059F000034826466C71FFF753FFCEE7E42B0020E7
:105A0000E52B0020B80E0020BC0E0020740B01080E
:105A100010B50C46FDF726FE01460820FFF730FFC3
:105A2000E1B22420BDE81040FFF7E3BE2DE9F743C3
:105A3000284C994623780546DF078846164645D503
:105A4000DFF894C09F081CF8077003F0FC03DFF830
:105A50008CC0042B8CF8007025D101ABFEF7D4FD6F
:105A60002378D90707D59DF806209DF804109DF8E6
:105A70000500FDF71DFE1A4F657084F80280E67080
:105A8000B9F1000F1AD0D4E90001FFF7C1FF3B784C
:105A9000DA071BD5E378A2786178124803B0BDE835
:105AA000F043FEF74DBD022F01D1E678E3E7062F64
:105AB00001D16578DFE7092FDDD1FAE73B78DB0715
:105AC00004D53346424629460748E7E703B0BDE818
:105AD000F08300BFD02500203C0401086825002089
:105AE00094280020C4110108E91101080548012388
:105AF000C27881783232FF2A28BFFF224078D2B2A2
:105B0000FFF794BFD025002005480123C278817893
:105B1000323A22EAE2724078D2B2FFF787BF00BF82
:105B2000D025002070B5002834D0142834D800F0D7
:105B30003F00224C224D237860F38703237069B322
:105B4000D4E90001FFF764FF2B78DA0705D5217847
:105B50001C48C1F38501FEF7F3FC217801221A48A5
:105B6000C1F385010AF09AFA2D78184B184E05F00A
:105B70000105C8B100225A7015B11648FEF7E0FCC5
:105B80000123E278F370A17860780023BDE87040CB
:105B9000FFF74CBF0120CCE71420CAE72B78DB07C6
:105BA000DBD501460C48D6E701225A7006F040FAD0
:105BB0003080002DE4D00948E0E700BFD025002068
:105BC0009428002010120108020C002068250020F3
:105BD000622500204A1201082C12010863120108F4
:105BE000074B1B78C3F385000130C0B2152828BFCE
:105BF0000120DB0702D50121FFF794BF704700BFEA
:105C0000D0250020074B1B78C3F38500013810F026
:105C1000FF0008BF1420DB0702D50121FFF782BF78
:105C2000704700BFD025002010B5FDF79DFC04464D
:105C3000FFF754FCFEF7C2F9012C03D1BDE8104078
:105C4000FDF7BABC10BD0000F0B5324C87B0FEF7CE
:105C500057FB6379304F03B13B60012523782F4E0A
:105C60003370FFF7E1FF4FF6E6610020FFF7D2FD4A
:105C700000210220FFF7BDFD294B294603201D808E
:105C8000FFF7B7FD4FF4A0510420FFF7C3FD00213B
:105C90000620FFF7AEFD00210720FFF7AAFD002137
:105CA0000820FFF7EDFD00212420FFF7A2FD0021D1
:105CB0001720FFF79EFD00210C20FFF79AFD002121
:105CC0000D20FFF796FD002300226846CDE9002352
:105CD00018210822FFF772FD00212020FFF7D0FDD8
:105CE0000D22002102A80AF08CF902A8FFF7D8FDC6
:105CF000257100253B680748637133786570237010
:105D0000A570E570FFF7CCFD29461320FFF7B8FD1D
:105D100007B0F0BDE52B0020840E002018280020DD
:105D2000982800202DE9F0470379054694B0002B10
:105D300000F0AC870121FDF7DFF847F62A0398420F
:105D40000446A14F2CD847F62203984267D89F4BB0
:105D50001E78012E40F0C680A4F5FC40A0F141035E
:105D60009BB2022B00F2D980994B40381B686C79AA
:105D7000984200F0A180002C3ED0FFF7F7FD06F01E
:105D800057F9944B186006F053F90522924B1860AE
:105D9000924B1E70924B1A700022924B1A702BE09D
:105DA000A0F5FC43573B9AB2072AD0D8072BCED890
:105DB00001A252F823F000BF635E00087B5E00087A
:105DC000915E0008A75E00084F5D0008D95D0008DD
:105DD000D95D0008D95D00086B796BB140220021C4
:105DE00004A80AF00EF930235B3C04A88DF81030AB
:105DF0008DF8114007F02CF93B785E0700F04687DC
:105E00006B79002B00F04287774B5B785D0740F1A0
:105E10003D87022014B0BDE8F047FCF709BE734B84
:105E20001B78002BE8D1724B1B781BB9714B1B7888
:105E30000A2BE1D96B79704E63B12046FEF79CF9CD
:105E4000348006F0F5F86D4B186006F0F1F86C4BF5
:105E50001860D1E73288A242CED1338005F016FE19
:105E6000CAE76B79002BC7D00122664B1A70664ACD
:105E7000136823F400631360BEE76B79002BBBD07B
:105E80000222604B1A70604A136823F40053F2E751
:105E90006B79002BB0D003225A4B1A705A4A136800
:105EA00023F40043E7E76B79002BA5D0574A13781A
:105EB00083F0010313709FE7DFF81C8134B106F013
:105EC000B7F8464BC8F800001E7095E7D8F8006098
:105ED00006F0AEF840F6B733801B98428CD83F4BA3
:105EE0001C7089E7022E18D147F640639C4214D1FA
:105EF0006C79474E34B10122464B1A7006F098F87F
:105F0000306079E7366806F093F840F6B733801BC7
:105F100098423FF671AF3F4BE2E7A4F5FC46A6F18D
:105F20004903082B00F2BE80DFE803F00527BC80A0
:105F3000BCBCBCBC93006B79002B3FF45DAFFEF79B
:105F4000C4F9012804460DD104210320FFF751FCB8
:105F50000422314B1A80314B2B4A1C70136823F0FA
:105F6000040313602E4B1A7822B100221A7001220A
:105F70002C4B1A702C4B012210E76B79002B3FF44D
:105F80003BAFFEF7A2F904280ED101210320FFF751
:105F900030FC0122204B1A800022204B1A701A4A32
:105FA000136823F0040313601E4A1378002BE1D01A
:105FB00001211B4B197014490B6823F020030B605F
:105FC00000231370D6E700BF9C280020A00E0020FD
:105FD000B80E00204C2900202C290020DC290020AC
:105FE0008D0E0020EC29002020290020F028002020
:105FF000F82900201E290020902800208C2800204D
:10600000882800201D290020900E0020FD29002056
:1060100028290020DB29002098280020FB290020C7
:10602000FA29002085280020412900206C79954E0E
:1060300024B105F0FDFF944B30609CE7366805F015
:10604000F7FF40F6B733801B98423FF6D5AE8E4B34
:1060500046E76B7943B18D4A8D48137883F001038D
:1060600013700373FFF71CFCDFF828828A4998F845
:1060700000201AB9894B1B780A2B24D947F6200334
:106080009C4220D16B79F3B10878854A10B113781E
:1060900083F001037E480B70137043708370FFF729
:1060A000FFFBA9E647F621039C42DDD16B79002B6B
:1060B000DAD0764A1378002BD6D000231370744AB6
:1060C00010461373CEE70B7823B952B9734B1B7884
:1060D0000A2B06D8A4F5F043213B9BB2012B7FF697
:1060E0008BAE6F4B1B7823B942B96C4B1B780A2BD4
:1060F00004D84E3EB6B2022E7FF67EAE47F644631B
:106100009C4219D16B79C1209BB1FEF7F1F947F69A
:106110004B639C4219D1FEF7D8F8022835D86B7929
:106120009BB3604A5A48137883F001031370C3701D
:10613000B5E7FEF75DF9EAE747F645639C420AD109
:106140006B79C22023B1FEF7D3F9E32C0FD00CE01A
:10615000FEF74EF9F9E747F646639C4240F0628548
:106160006B79E2204BB1FEF7C3F9E72C0DD16B79C7
:106170005BB14C4B1B7843B13EE6FEF739F9F4E7CF
:10618000E3206B79E3B1FEF7B3F998F80030D3B1AF
:1061900045F2222224F005039BB293421DD047F61C
:1061A00052639C4240F0A0803F48FEF7C9F96B79EA
:1061B0003E4C3F4E002B00F08780012323709DE66C
:1061C000FEF716F9E1E747F64D639C42E0D16A79A4
:1061D000384B002A3FF4E2ADCDE66B798BB1364EF9
:1061E000D6F8008005F024FFA0EB0800C728334B49
:1061F00043D81A78002A3ED101221A7005F018FF00
:1062000030606B79002B00F01B8500202C4BA4F52F
:10621000E0461870B3B2222B00F220850420FEF76E
:1062200057F8284C013E2080212E00F2FF80DFE845
:1062300016F03B01B70143010D01110147011501A2
:106240004B01570121019E0125015B0129015F01DD
:1062500085012D0163018D0133016901710119016E
:106260004F011D01530137016D017C0197019C0114
:1062700008013F01BF0101321A701A78002AC0D10B
:10628000BAE700BF24290020DD29002023290020AF
:10629000E52B0020F8290020F02800201E290020EE
:1062A00084280020FA2900207C12010840290020BF
:1062B0003C290020D929002080280020DE29002048
:1062C00092280020202900203368B3F5FA6F05D208
:1062D000AB4B1B782BB1A820FFF710F800232370DD
:1062E0008AE547F64E60F7E747F656639C4202D1CF
:1062F0006A79A44B6DE747F655639C420AD16A79E7
:10630000A14B002A3FF44AAD01221A7005F090FE1D
:106310009E4B9DE51A2C0BD19D4B1B78002B3FF417
:1063200070AF52206B79002B48D0FEF7E1F863E59F
:10633000042C07D1964B1B78002B3FF462AF502002
:106340006B79F0E7162C07D1914B1B78002B3FF4AB
:1063500058AF51206B79E6E7072C07D18C4B1B789F
:10636000002B3FF44EAF4F206B79DCE7522C07D166
:10637000874B1B78002B3FF444AF1A206B79D2E790
:10638000502C07D1824B1B78002B3FF43AAF0420EE
:106390006B79C8E7512C07D17D4B1B78002B3FF45C
:1063A00030AF16206B79BEE74F2C0AD1784B1B78A3
:1063B000002B3FF426AF07206B79B4E7FEF718F8FF
:1063C0001AE547F65B639C4240F00A846B79002B28
:1063D0003FF417AF6F4A7048137883F001031370CE
:1063E000C372FFF75DFA6D4A136823F4001342E5A8
:1063F000E12226231146687907F0DCF9FCE4272323
:10640000E522E521F7E72623E122E021F3E7272330
:10641000E522E421EFE72623E122E221EBE727232F
:10642000E522E621E7E728230122EAE7237843F083
:106430000103237004202188FFF7ECF9FDF7E2FE49
:10644000DAE4637843F008036370F3E7237843F0FA
:106450000203EEE7237843F00403EAE7237843F0EE
:106460000803E6E7637843F00103EDE7637843F060
:106470000203E9E7237843F01003DAE7237843F0D7
:106480002003D6E7237843F04003D2E7FDF7BAFEB6
:10649000237843F08003CCE7237843F00C03C8E76C
:1064A000637843F00303CFE7237823F00103C0E7C9
:1064B000637823F00803C7E7237823F00203B8E7E3
:1064C000237823F00403B4E7237823F00803B0E72C
:1064D000637823F00103B7E7637823F00203B3E79F
:1064E000237823F01003A4E7237823F02003A0E708
:1064F000237823F040039CE7FDF784FE237823F004
:10650000800396E7237823F00C0392E7637823F067
:10651000030399E72378C3F3800282F00102D2B229
:1065200062F3820362F3C30383E76378DA4302F022
:10653000010262F3000362F3410385E72378C3F3AA
:10654000801282F0010262F3861372E7FDF75AFEB1
:106550002378C3F3C01282F0010262F3C71368E725
:1065600001210E20FFF745F964E70021F9E72378C0
:10657000C3F3001282F0010262F3041359E700BF73
:1065800039290020F529002038290020342900204D
:10659000302900201F290020E52B0020900E00202C
:1065A0002378C3F3000282F0010262F3000340E7A4
:1065B0006378C3F3C00282F0010262F3C30343E7CE
:1065C00047F603439C4240F2E28047F65B439C421D
:1065D00000F01B8147F65C439C4200F0108147F6B7
:1065E0005A439C4200F014812A886B79ADF80C2044
:1065F0000398002B00F00E81FCF756FC0446014680
:106600000398FCF7A7F9BDF80C302046ADF8103020
:106610000499FCF763FAFCF777FB97F8008095F88C
:10662000069018F0070804466E79C9F303192AD0BA
:10663000B04646B3C4F3072303F0F002402A11D05A
:10664000C1B201F12002D2B2072A40F2E78003F082
:10665000E003202B06D1012940F2E080B9F1000FC0
:1066600000F0DF80A94B93F8018018F004080AD0ED
:106670000220FCF7DDF93B7813F0070F0CBF4FF059
:1066800001084FF00008C4F303330B2B00F22581FF
:10669000DFE813F0C900C90002010201A501BD0134
:1066A00023012301C70128023B023B02984B1878C3
:1066B00047F634039C4200F0220031D847F620030D
:1066C0009C4291D9A4F5F044223C122C41D801A35C
:1066D00053F824F0596700085F67000865670008F1
:1066E0006B67000871670008776700087D6700081E
:1066F0008367000889670008F95D0008F95D0008F4
:10670000F95D0008F95D0008F95D0008F95D000811
:10671000F95D0008F95D0008F95D0008F95D000801
:1067200047F64F639C420ED047F650639C420DD013
:1067300047F64E639C427FF457AF764A764905F0A0
:10674000B3F9FFF759BB754A7549F8E7744A7349BD
:10675000F5E7744A7449F2E7734A7249EFE7734AFE
:106760007349ECE7724A7149E9E7724A7249E6E710
:10677000714A7049E3E7714A7149E0E7704A6F492D
:10678000DDE7704A7049DAE76F4A6E49D7E7B4F53A
:10679000F84FFFF429AFA4F5F844013C022C03D8CC
:1067A000DFE804F0260E1F00FDF72CFD46F2A810CE
:1067B00006F0B2FF44F24D22644B9A6206F036FCBA
:1067C00063490B78C3F3000282F0010262F3000315
:1067D0000B70DB074CBF5F485F48FDF7B1FEFFF76A
:1067E0000BBBFFF721FA4FF6FF710020FFF712F8FD
:1067F000FDF708FD46F2A81006F08EFFDEE7434BDA
:10680000587880F00400C0F38000FFF715F8EBE63D
:106810000120FAE7FCF7BCF80446F4E64FF0000864
:1068200031E7C8462FE7C4F30329C4F307224FEA30
:1068300009130F2A88BF9946E4B2AEB1B9F1000F2F
:106840000CD004F12003DBB2072B00D954B9304A35
:10685000137849EA03031370FDF726FC2046FDF781
:10686000DBFD3AE03D4AF3E72046FDF788FDB9F14C
:10687000000F32D004F12003DBB2072B00D91CB982
:106880004846FCF723F904E0344A137823EA090365
:106890001370FDF709FC20E0C4F30320C4F30723C1
:1068A00003F0F0030201E4B2202B18BF104644B1FC
:1068B000012C7BD0002E00F08480B9F1000F53D062
:1068C000CCE7124B5B785C074AD426B128B1104A5A
:1068D00013780343DCE70028D3D1B8F1000F0ED0C2
:1068E000387810F001030AD16B71C008FBF7F2FF92
:1068F0002846FFF717FA3878C008FBF7F5FF0021A4
:10690000284614B0BDE8F047FCF7F6BA202900206D
:1069100095280020055C0008E15B0008095B000881
:10692000ED5A000801B90008E5B8000891B900085F
:106930007DB90008C5B90008A9B90008FDB900086B
:10694000E1B9000875BA00085DBA0008006C0040A3
:106950009428002092120108A31201089D2800200B
:1069600086B1B9F1000F02D1FDF7DCFBB5E7B9F153
:10697000010FB2D1A64A137830EA0301ADD0034328
:106980001370AAE7B9F1000FA7D10190FDF7D4FB6E
:106990009F4A0198137818421CBF834313709D4A85
:1069A0001378184299D023EA0003E9E71EB1B9F140
:1069B000050F92D8D8E7B9F1040F8ED8FDF7BCFBCC
:1069C0008BE7B9F1000FF9D0392C0CBF4FF4FA5016
:1069D000012006F0A1FE2046FDF7D1FC7DE714F46E
:1069E000406FC4F3812308D0012B7FF476AF66B1EA
:1069F000C4F3090005F066FA6FE726B1C4F3090095
:106A000005F046FA69E73046FAE73046F2E7E0B2C9
:106A100026B105F0E5F806F08DFA5EE705F042F9DB
:106A2000F9E714F4407F29D16EBBE00648BF0F267A
:106A3000C4F342124FEA8202D2B248BF964004F039
:106A40000F03C4F3812448BFF643022C03FA02F378
:106A5000714A0DD0032C0FD0012C04D01188334380
:106A60000B4013800FE011880B431E4316800AE091
:106A7000334311884B40F4E73343F2E7C4F3012278
:106A800026B1D10704D405F099F926E7012AFAD9ED
:106A900014F0100218BF0F22C4F342114FEA810113
:106AA000C9B218BF8A4004F00F03C4F3812418BF91
:106AB000D243022C03FA01F358490DD0032C0FD016
:106AC000012C04D013430A8813400B80DBE70888AD
:106AD00003431A430A80D6E713430A885340F4E776
:106AE0001343F2E75FFA84F9C4F3032436B1204676
:106AF000FBF7F0FE4846FDF715FBC4E74846FDF7F7
:106B00001BFB2046FBF7F0FEBDE75FFA84FAAAF113
:106B1000F003042B47D8DFE803F003271017210008
:106B200046B1B9F1040FAED80123C4F304243B4AA3
:106B3000A3409EE7B9F1050FF5E7C4F30420002E4A
:106B4000E0D1FBF7C7FE9EE7344A002E8ED001232A
:106B5000C4F3042403FA04F4148094E7DFF8C0A01B
:106B60009AF801305A0704D4C4F30420002EC9D087
:106B7000E7E76EB1C4F304242046FBF7ABFE9AF8B6
:106B800001305B07DDD5E40044F003043C70D8E736
:106B90000120FBF74DFFB9F1010F7FF674AF022022
:106BA000FBF746FF6FE74EB1B9F1000F03D0504637
:106BB000FDF732FC67E7C4F30420C2E7B9F1000F28
:106BC0000BD0BAF1390F0CBF4FF4FA50012006F088
:106BD000A3FD5046FDF7D3FB55E7C4F3042091E72E
:106BE000A4F5F843183B062B3FF60BAB01A252F875
:106BF00023F000BF076400080F640008F163000879
:106C0000FF630008176400081F6400082764000879
:106C10009628002097280020982800209A280020F5
:106C20002029002047F647639C423FF4A9AA47F673
:106C300048639C427FF46BAAE7206B79FFF7A2BA06
:106C400047F616439C427FF431AD124B1B78002B64
:106C50000CBF2920352005F095F913E047F61643BF
:106C60009C427FF4ADAC0C4B1B7803F0AA03002BC5
:106C700014BF01220022074B0CBF292035201A70B7
:106C800005F03CF9FDF710FAFFF7B6B814B0BDE80F
:106C9000F08700BF93280020952800201C49F8B5F4
:106CA0008B790F2B0AD84B7943B11A4B1A4A1B78B0
:106CB00015784E780F78194CAB4200D1F8BD04EB33
:106CC000C300027902B34278B2421DD114F83320D6
:106CD000BA4219D14279BAB94288B1F802C0A2EBDE
:106CE0000C0292B2C72A0FD801228B7962F30713E4
:106CF0008B71837962F3071383710548FFF712F8EC
:106D0000BDE8F840FBF784BE013303F00703D3E787
:106D1000E02800209F2800209E280020A028002096
:106D20002DE9FF470546824C06220146684609F0D8
:106D3000C3F994F804906F792A79B9F1000F12D150
:106D40007AB1002F00F0F0802846FCF701F9002806
:106D500000F0EA8008222946754809F0ADF9FFF7EE
:106D60009DFF012442E0B5F802A063886679AAEB92
:106D7000030395F800809BB2002E00F0A680C72B7D
:106D800067D8002AEDD0A37962780F2B697850D8A4
:106D900091420FD1227842450CD1002F44D10122DB
:106DA000204662F30713A371FEF7BCFFA379AB7112
:106DB00000241BE0002F37D13A464046FBF706FE81
:106DC0004046FBF703FE04460028F1D10098FCF78B
:106DD000ADF8C0F30332032AC3B20BD8012A13D98A
:106DE00010F4706F15D0AA790F2A12D8204604B07B
:106DF000BDE8F087063202F00F02012A0ED92846BC
:106E0000FEF790FF3446F1E710F4706F01D0002BCD
:106E1000ECD02033DBB2072BE8D9F0E7EF2BE5D934
:106E20000F33DBB2022BF7E7A37943F00103A37121
:106E3000BEE791422ED1227842452BD157BB28463E
:106E4000AB71FEF76FFF08222946204609F034F99E
:106E500087E7A3790F2B08D82046FEF763FF0822A7
:106E60000021204609F0CDF8A2E7002A3FF479AFCF
:106E700061786A7891420DD1227842450AD14FB9A2
:106E80002846AB71FEF74EFF08223946204609F02E
:106E9000B8F866E72846FCF75BF8002844D0002FD6
:106EA00042D0A3791F2B7FF655AF228802A8ADF8F8
:106EB00008200022ADF80AA08DF80C908DF80D2066
:106EC0008DF80E30FEF72EFF44E7C72BC7D8002AF7
:106ED0003FF447AF47B362786B789A421AD1237870
:106EE000434517D1A379DA0710D40F2B0ED9AB7114
:106EF00003F0F003F02B06D0AB79C3F30312013299
:106F000062F30713AB712846FEF70CFF08222946EF
:106F100007489BE72846FCF71BF800287FF41AAFC8
:106F2000A37943F00103A3712846FEF7FBFE18E79F
:106F3000E0280020F0B589B0CDE900019DF80550AA
:106F400000220DB12A490A709DF80460DDE90001B4
:106F5000ADF80E2002903EB1012102A88DF80C6020
:106F60008DF80D50FBF7C8FF8DF80C608DF80D50B3
:106F7000DDE90201CDE9040104A8FFF7D1FE1D4EB1
:106F800007461D4CB8B9DDE90401CDE906019DF8BD
:106F900014103378227871B15D1C05F00705954215
:106FA00010D01648082206A900EBC30009F084F8A7
:106FB0003570FBF72DFD114D2078337883420BD1CE
:106FC00009B0F0BDFDF71EF9082239460C483770AC
:106FD000277009F016F8EEE705EBC000FFF7A0FEFA
:106FE0000028EDD02378013303F007032370E3E793
:106FF0009D2800209E2800209F280020A0280020F7
:10700000E028002073B505F013F80A4D84B22B88F0
:10701000A3420DD00026ADF8006005F009F8ADF8E8
:107020000460ADF80200DDE90001FFF783FF2C806A
:1070300002B070BD1628002010B5304C0522A3699F
:10704000022143F40073A361A3692D4843F00803B0
:10705000A36107F0C1FD2B4B9A6842F400029A60CD
:10706000626822F440426260626842F440426260B8
:107070005A6822F470225A605A685A605A6822F498
:1070800080725A60204AD2F8801421F44051C2F82C
:107090008014D2F8801441F48051C2F880149A68A8
:1070A00022F002029A609A6822F460229A609A683A
:1070B00042F460229A609A6842F480129A609A6858
:1070C00022F400629A60DA6A22F47002DA62DA6A02
:1070D000DA629A6842F001029A609A6842F0080205
:1070E0009A609A681207FCD49A6842F004029A6087
:1070F000044A93685B07FCD410BD00BF0010024037
:10710000000C014000240140002001402DE9F04323
:10711000284D97B007AC0FCD0FC40FCD0FC40FCDC6
:107120004FF001080FC495E807000F2584E8070019
:1071300007AE56F8041B4A1C0BD021F00F0701F0D4
:107140000F0108FA01F406222146384607F044FDF3
:107150007C61013D15F0FF05EBD1174D01AC0FCD62
:107160004FF001080FC495E803004FF030090625E1
:1071700084E8030001AE56F8044B631C12D024F0DF
:107180000F0704F00F040322384608FA04F107F051
:1071900023FD89F311882146384607F027FE002396
:1071A00083F31188013D15F0FF05E4D117B0BDE868
:1071B000F08300BFE00201081C03010870B586B02F
:1071C0006C46284D0FCD0FC495E8030084E80300FA
:1071D000254C237883B3254D4FF4967006F09CFA26
:1071E0000A2268460623016821F00F06B66801F0FE
:1071F0000F0126FA01F1C9071ED5013B13F0FF0369
:1072000000F10400EFD1013A12F0FF02E9D1FFF7DB
:107210007DFF2A68164B13432B602B6843F00C0349
:107220002B60144B1A6942F004021A6130BF1A69CC
:1072300022F004021A61CFE70F4B104A196811407F
:107240001960596811405960996811409960D9686E
:107250000A40DA604FF6FF725A610023237006B0CD
:1072600070BD00BF1C030108E3290020007000402E
:10727000010C0C0000ED00E0000401400000FFFFE5
:1072800008B5302383F31188012100F00F039940E2
:10729000032220F00F0007F09FFC002383F31188E6
:1072A00008BD000038B50F24114D55F8040B421CE1
:1072B00001D0FFF7E5FF013C14F0FF04F5D10624EF
:1072C0000C4D55F8040B431C01D0FFF7D9FF013CCE
:1072D00014F0FF04F5D121460C22074808F091FE76
:1072E0002146BDE838400C22044808F08ABE00BFA1
:1072F000F8070108340801080A28002006290020A0
:107300008023674A2DE9F047536108234FF4005763
:1073100053612023DFF88C914FF40074C9F8147086
:1073200053610423604EC9F81040C2F81038307819
:1073300004F0EAFB03224FF480785C4BDFF870A185
:107340001A70FDF7F5FD4FF47A7006F0E5F907F0D5
:107350003DFD05220121574807F03EFC0522022190
:10736000544807F039FC504602224FF40061CAF835
:10737000148007F031FC504602224FF4805107F090
:107380002BFCFFF7C3FE02222146454807F024FCF0
:10739000302585F311880921414807F027FD002495
:1073A00084F3118802224FF40041484607F014FC90
:1073B00085F311880F21484607F018FD84F31188E2
:1073C00002224FF48041484607F006FC85F31188FD
:1073D0000E21484607F00AFD84F3118802224FF47B
:1073E00080612F4807F0F8FB85F311880A212C48AB
:1073F00007F0FCFC84F3118802224FF40061284856
:1074000007F0EAFB85F311880B21254807F0EEFC15
:1074100084F31188284A294D936823F0010393606F
:10742000274B284A19680A431A601A6842F00C026E
:107430001A602B6943F004032B6130BF2B6923F0E2
:1074400004032B61FFF7BAFE2B6923F004032B61C1
:1074500007F022FB07F00AFCFFF724FFFFF7ECFD23
:10746000CAF8108004F0E4FD174B1860174B1C603D
:1074700004F0DEFD164B186004F0DAFD154B1860C1
:1074800004F0D6FD144B1860FBF7E2F90122134B10
:107490001A70C9F8107005F013FD3070BDE8F08760
:1074A000000C014000100140D8290020A00E00204F
:1074B00000080140001401400024014000ED00E0FC
:1074C00000700040010C0C00942B0020902B002039
:1074D0004C29002048290020982B00208C0E0020E9
:1074E0002DE9FF47002401253027A0465C4E01947A
:1074F0000294039456F8041B4B1C4CD087F311885C
:107500004FF0010921F00F0A01F00F0109FA01F90A
:1075100006224946504607F05FFBCAF8149088F3EC
:10752000118800BF00BF00BF00BF00BF00BF00BF89
:1075300000BF00BF00BF00BF00BF00BF00BF00BF53
:1075400000BF00BF00BF00236FEA050EDFF814C1C3
:1075500001A85CF8041B30F8022BB1F1FF3F5FD0AB
:1075600021F00F09D9F8089001F00F0129FA01F173
:10757000C90755D42A430133DBB2062B20F8022C6D
:10758000E7D156F8040C431C01D0FFF779FE4FF405
:10759000076005F09BFD0134E4B26D000F2CADB225
:1075A000A8D10C22304801A908F082FE2F4C0028F7
:1075B00039D00C2201A92C4808F07EFD012323704C
:1075C00004F036FD2A4B18602A4B1C88A4B12A4BC4
:1075D0001D6804F02DFD401BB0F5967F0CD9274D9A
:1075E0002E6804F025FD801B1E2805D904F020FD1F
:1075F00028602046FCF7C0FD214803780133DBB248
:10760000312B037009D91F4B1A68510103D4D96873
:1076100009B30139D9600023037004B0BDE8F087D5
:1076200002EA0E02A7E72378002BCDD0104B1D688D
:1076300004F0FEFC401B0128C6D90C220A4912485E
:1076400008F036FE20B10C2207490F4808F034FD3F
:1076500000232370B8E742F080621A60DBE700BFC6
:10766000F80701083408010806290020082800202E
:1076700004280020902800208C2800208828002042
:1076800000280020900E00200A2800202DE9F04F4D
:10769000944A95481378954F0133DBB2142B08BFF9
:1076A00000238BB0137003783A7801335200B3FB98
:1076B000F2F102FB11330A218D4A037013788D4CCD
:1076C0000133B3FBF1F001FB10338B4813700278E8
:1076D0008A4E0132B2FBF1F301FB1322027088489B
:1076E0002178037849000133B3FBF1F501FB153331
:1076F0003178DBB2037011B10BB9013931708149B6
:107700000B7833B100230B70037005232370032320
:10771000337022B97C4A13780BB1013B13707B4D57
:10772000DFF8EC912B787B4C23B199F80030002BDB
:1077300000F0BE8004F042FB8007337825D5002B93
:107740004BD1714B1B780BBB73490A7842F008028E
:107750000A70A268910507D54FF4007262616F4903
:107760000A6822F008020A606D4A1278F2B9002B0A
:1077700033D1694A137823F010031370694B9A6868
:1077800056072AD404221A6122E033BB5E4B1B78D1
:10779000002BE9D160490A7822F008020A70A26839
:1077A0009205E1D44FF400722261D8E7ABB95A4A8E
:1077B000137843F0100313705A4B9B685B070CD58A
:1077C0002B7813B199F800303BB10422554B5A6124
:1077D000524A136823F020031360534B1B7883B184
:1077E000524B1E6804F024FC801BB0F5FA6F08D9D8
:1077F0004F4A5048137883F0010313708371FEF7EA
:107800004FF84D4E3378BBB14C4BD3F8008004F0A9
:107810000FFCA0EB0800B0F5FA6F0DD903223A4B2C
:1078200044481A700023464A3370137883F00103EA
:107830001370C371FEF734F8424B1B78042B2AD126
:10784000414E337823B17320FDF758FD0023337088
:10785000DFF8F88098F80030EBB13D4E316859B947
:107860003C4B93F900308B427ADA202202A808F0D0
:10787000C8FB02A804F0DAFA3368092B03F101020D
:1078800003BF0023336098F80030326004BF03F177
:10789000FF3388F80030304E3049B36813F400737A
:1078A00064D10A78012A00F2D88001320A7074E0AB
:1078B0001B4B1B7853B11B4B9A68500706D404220C
:1078C0001A61164A136823F020031360A368990510
:1078D00083D44FF40073114A6361136823F00803E3
:1078E0007AE700BF45290020EC2900208D0E0020FA
:1078F000E229002043290020E1290020422900201C
:107900004429002041290020DF290020A00E00206A
:10791000E42B002000100140F4290020900E0020EC
:10792000FA29002000140140402900203C290020B1
:1079300039290020E52B0020382900203429002097
:10794000302900205029002015290020042900207A
:107950000029002020290020000C0140F1280020EF
:1079600002A8CDE9021104F031FA85E700233E4A6E
:107970000B7013783D493E48002B64D0B36813F078
:10798000020360D13B4E3688B6F5617F5BD80B7041
:107990000378312B54D801330370374EDFF8DC8085
:1079A0003378EBB9FAF7D2FD354B82461880FAF7F7
:1079B00013FE40F2E46303FB0AFABAFBF0FA2D4B24
:1079C000A3F800A0FAF74EFE2E4B18702E4B18703D
:1079D00004F02EFB01232D4AC8F800001370337009
:1079E000D8F800A004F024FB42F21073A0EB0A00C8
:1079F000984262D9FAF7AAFD214B82461880FAF71D
:107A0000EBFD40F2E46303FB0AFABAFBF0FA194B10
:107A1000A3F800A0FAF726FE134B1A4A93F800C009
:107A20001070BCF1010F1A4B40F0EA84DFF858E007
:107A30009EF8001088422DD800201870117038E090
:107A400002231370A9E7002303700B78312B02D8AF
:107A500001330B70A1E70123F3E7034A13703223CC
:107A6000034A1370014AECE7F8290020890E002030
:107A70008A0E0020622B0020FD280020F428002020
:107A8000FA2800201E290020F8280020FE280020C7
:107A9000F228002018780130C0B202281870CDD921
:107AA00000201870B84B01318EF80010117083F867
:107AB00000C004F0BDFAC8F80000A3681A0454BF5F
:107AC0000123A368B14A41BFC3F3803383F00103AC
:107AD0005B00DBB213702A789A4228D0DFF8B082BC
