:020000040800F2
:1020000000040020392200083B2200083B2200087F
:102010003B2200083B2200083B2200083B2200082C
:102020003B2200083B2200083B22000809C70008A9
:102030003B2200083B2200083B220008E9DC0008A4
:102040003B2200083B2200083B2200083B220008FC
:102050003B2200083B220008D9D5000819D6000809
:1020600059D6000899D60008D9D60008B5D9000875
:10207000C9D90008DDD90008F1D9000805DA00083F
:1020800019DA00082DDA00083B2200083B2200087C
:10209000D9DD00083B2200083B22000819D70008C0
:1020A0003B2200083B2200083B2200083B2200089C
:1020B0003B2200083B2200084DDD00083B220008BF
:1020C0003B2200083B2200083B2200083B2200087C
:1020D0003B220008B1DD00083B220008C5DD0008F6
:1020E000D5D7000899D800083B2200083B220008F9
:1020F0003B2200083B2200083B2200083B2200084C
:102100003B2200083B2200083B2200083B2200083B
:102110003B2200083B2200083B2200083B2200082B
:1021200041DA000855DA000869DA00081DD900080C
:102130003B2200083B2200083B2200083B2200080B
:102140003B2200083B2200083B2200083B220008FB
:102150003B2200083B2200083B2200083B220008EB
:1021600072B6264880F30888254880F309882548F8
:1021700025490860022080F31488BFF36F8F02F0B6
:10218000E5FB0BF015FC4FF0553020491B4A9142FE
:102190003CBF41F8040BFAE71D49194A91423CBF84
:1021A00041F8040BFAE71B491B4A1C4B9A423EBFFD
:1021B00051F8040B42F8040BF8E700201849194ABB
:1021C00091423CBF41F8040BFAE709F0ABFE09F07D
:1021D000A7FE154C154DAC4203DA54F8041B884792
:1021E000F9E706F039FA124C124DAC4203DA54F812
:1021F000041B8847F9E709F094BE000000040020A2
:10220000000C00200020000808ED00E00000002085
:1022100000040020A0050108000C0020440F00204D
:10222000480F0020043100206021000860210008D0
:10223000602100086021000892E700F000F8FEE746
:102240002DE9F04FC1F80CD0C3689D46BDE8F08F72
:10225000002383F311882846A04700200AF0A2F942
:10226000FEE70AF00BF900DFFEE7000053B94AB9B8
:10227000002908BF00281CBF4FF0FF314FF0FF308E
:1022800000F062B9ADF1080C6DE904CE00F006F87B
:10229000DDF804E0DDE9022304B070472DE9F047E2
:1022A0008C46154604461E46089F002B40F0CB8006
:1022B0008A4248D9B2FA82F149B1C1F120030CFA3D
:1022C00001FC20FA03F38D4043EA0C0C8C404FEAEA
:1022D000154EBCFBFEF8A8B20EFB18CC08FB00F9AB
:1022E000230C43EA0C43994529D9EB1808F1FF3236
:1022F00004D2994502D9A8F102022B44A3EB0903A9
:10230000B3FBFEFC0EFB1C330CFB00F0A4B244EA52
:102310000344A04215D92C190CF1FF3304D2A0427A
:1023200002D9ACF102032C44241A43EA02401FB143
:102330000023CC403C607B603146BDE8F0874246DC
:10234000DCE76346F0E7002A73D0B2FA82F3DBB32E
:102350001E4602FA06F5C6F1200321FA03F24FEAFF
:10236000154EB14020FA03F30B43B2FBFEF100FA25
:1023700006F40EFB112CA8B201FB00F81A0C42EA7D
:102380000C42904557D9AA1801F1FF3C04D2904560
:1023900002D9A1F1020C2A44A2EB0802B2FBFEF121
:1023A0000EFB112248439BB243EA0243984244D9B0
:1023B000EB1801F1FF3203D2984201D98A1E2B4457
:1023C0001B1A42EA0C4201E08B1A01224FEA154E19
:1023D000B3FBFEFCA8B20EFB1C330CFB00F8210C77
:1023E00041EA034398452AD9EB180CF1FF3104D296
:1023F000984502D9ACF102012B44A3EB0803B3FBCF
:10240000FEFC0EFB1C330CFB00F0A4B244EA0344B8
:10241000A04216D92C190CF1FF3304D2A04202D9E4
:10242000ACF102032C44241A43EA0140314616461B
:102430007DE71F268DE78C46AEE70A46C0E761467A
:10244000DBE76346EFE78B4206D917B90026304633
:1024500072E7C7E90001F9E7B3FA83F686B98B4260
:1024600001D3824207D8841A61EB030301209C4602
:102470001FB9002660E73046FAE7C7E9004CF8E7E5
:10248000C6F1200CB34022FA0CF41C434FEA144965
:1024900021FA0CF3B3FBF9F820FA0CF5B14029430B
:1024A0001FFA84FE00FA06F509FB183008FB0EFA45
:1024B0000B0C43EA00439A4502FA06F240D9E318AE
:1024C00008F1FF3004D29A4502D9A8F10200234452
:1024D000A3EB0A03B3FBF9F809FB183308FB0EFE64
:1024E00089B241EA03418E452CD9611808F1FF33C6
:1024F00004D28E4502D9A8F10203214443EA0040E8
:10250000A0FB0298A1EB0E014145CE46434602D303
:1025100006D14D4504D2B9EB020E68EB0403013835
:10252000002FA6D0B5EB0E0261EB030101FA0CFC03
:1025300022FA06F34CEA0303F140C7E9003198E7B9
:102540004046C5E74346D9E7704700BF30B587B07E
:1025500001A90C460A221F4B186920F0605018612F
:10256000186940F060501861586B20F01F005863E4
:10257000586B40F009005863986840F480009860F8
:1025800018688007FCD5D86C013A92B224F8020B87
:10259000002AE1D109200A460023148832F8025F9C
:1025A0000133AC429BB284BF22F8025C14808342A8
:1025B000F3D1013B98B20028EDD1082331F8022F66
:1025C000013B9BB21044002BF8D1C0F3CF0007B001
:1025D00030BD00BF0024014030B587B001A90C46D2
:1025E0000A221F4BD86820F46000D860D86840F4F5
:1025F0006000D860586B20F01F005863586B40F0A3
:1026000011005863986840F480009860186880074B
:10261000FCD5D86C013A92B224F8020B002AE1D121
:1026200009200A460023148832F8025F0133AC42C5
:102630009BB284BF22F8025C14808342F3D1013B39
:1026400098B20028EDD10123013331F8022F9BB25B
:10265000092B1044F8D1C0F3CF0007B030BD00BF44
:102660000024014041F23602314B1B889342314A2B
:1026700006D8B3F5617F07D22F49896889052CD523
:1026800064231370107870476FF4486C03EB0C01EF
:10269000632904D81421B3FBF1F3A03BF1E7A3F6BF
:1026A000E5416329F6D9A3F64951E52908D81E2149
:1026B000A3F648534B43E621B3FBF1F30A33E0E7BB
:1026C000A3F62F61812908D81421A3F62E634B436A
:1026D0008221B3FBF1F32833D3E76FF46B60191851
:1026E000A92908D81421A3F56B634B43AA21B3FB96
:1026F000F1F33C33C5E7A3F65B71312906D80A2113
:10270000B3FBF1F36FF49C710B44BAE7A3F68D7140
:10271000A92908D80E21A3F68C734B43AA21B3FB39
:10272000F1F35533ADE7B3F5486FABD00023A8E71D
:10273000262B0020242B0020000C0140024AD369E4
:1027400043F00063D361704700100240024AD3692E
:1027500043F08053D361704700100240024A13686F
:1027600043F48073136070470070004008B5194B44
:1027700019491A686FF311021A605A6822F400327C
:102780005A60DA6822F40032DA609A6822F4003281
:102790009A604B6843F010034B604B689806FCD579
:1027A000FFF7CCFFFFF7D2FFFFF7D8FF4B6843F0EE
:1027B00010034B600023CB614B6823F010034B6088
:1027C000054B5A689206FCD55A6822F010025A60EE
:1027D00008BD00BF0004014000280040F7B51E46B8
:1027E0004FF6FF730193A5230B705A234B70002300
:1027F0000C46154602278870CB700A71E11901A8B2
:10280000013700F012F8052FF8D10722731E154486
:10281000AA4205D3019B1A0A6271A37103B0F0BDED
:1028200013F8011FA1540132F2E710B502680B78CA
:102830004AF201045340082243F30001013A2140C7
:1028400012F0FF0281EA5303F6D1036010BD0000CD
:1028500000230B4A13700B4A13700B4A13700B4A78
:1028600013700B4A13700B4A13700B4A13700B4A08
:1028700013700B4A13700B4A13700B4A1370704796
:10288000B0290020A6290020A5290020A429002085
:10289000A3290020A2290020A1290020A02900208E
:1028A0009F2900209E2900209D290020030943EA3A
:1028B00000108300C0F3850000F0330023F03303E1
:1028C00003435800C3F3460303F0550300F0AA0086
:1028D000184370470123034A834011880B43138038
:1028E000704700BF542800200123034A834010880A
:1028F00020EA0300108070475428002001F00703ED
:1029000030B5C908012502EB810200219D40013A42
:1029100012F8014F20FA01F343F3000363402B4008
:1029200001315C4004291470F2D130BD002210B591
:1029300000F00704C00801EB800110468B5CE34007
:1029400003F00103934001321843042AC0B2F5D1C9
:1029500010BD00000246C0F30723052B084682B0D5
:10296000D1B209D80E290DD8C3EB03131944064A76
:1029700089B202B0FFF7C2BF0433DBB2012B01D82A
:10298000024AF6E702B0704701280020FD27002028
:10299000C0F30723052B82B0C0B209D80E280DD88A
:1029A000C3EB03131844074980B202B0FFF7BEBF60
:1029B0000433DBB2012B01D80349F6E7002002B053
:1029C000704700BF01280020FD270020F0B50D4B07
:1029D0000D4C1B7826780D4CB34201D10020F0BD80
:1029E00004EBC3056F788F4206D114F83370874229
:1029F00002D16D79954203D1013303F00703EBE770
:102A00000120ECE759280020582800205A280020EF
:102A1000054B064A1B7812789A4200D17047013361
:102A200003F00703F8E700BF5928002058280020CA
:102A300010B509490B7823EA000010F0070408706C
:102A400009D1984207D0054B5B785B0703D5C008D6
:102A5000FFF74AFF0C7010BD56280020F428002014
:102A600070B5134B134D1878134B1B7818432B7804
:102A7000C0B28BB11843114B1B7823B1104B93F9A3
:102A80000030002B09DB06220E4B00211A449A422B
:102A900006D109B100232B7070BD1E220A4BF4E74A
:102AA0004C1C13F8016BE4B2002E18BF2146EEE770
:102AB0004F2800205028002057280020340D0020E7
:102AC000F42800207A1000205A100020024A1378BF
:102AD00023EA0003137070474F280020CBB2C1F3E4
:102AE0000721052982B00ED80E2B1FD803281FD826
:102AF0005A22C1EB011102FB001119440D4B33F8AE
:102B0000110002B07047FD2906D17BB903280FD808
:102B1000094B33F82000F4E7FC2907D133B9032827
:102B200006D8054B03EB80035888EAE70020E8E766
:102B30000120E6E7B0F6000880F90008E7284FD842
:102B4000DF2807D8312864D00ED8292857D02A2862
:102B500066D07047A0F1E003072B41D8DFE803F00F
:102B60001540232831403C41392804D0822802D026
:102B700035283FD07047324B1A7892071FD15B78C7
:102B800013F0080F18BF292070472D4A1378D90772
:102B90004DD4527812F0010F22D013F0100F14BF51
:102BA0000020E3207047264B1B7813F0040FF3E757
:102BB000234A137859073CD45278D207EDD5E02048
:102BC00070471F4B5A7891070AD51B7813F0100FE6
:102BD00014BF0020E7207047194B1B781A07F5D463
:102BE0007047174A1378190725D452789107EDD505
:102BF000E4207047124B1B7813F0200FC2E7104BF4
:102C00001A78920619D45B7813F0080F18BF392090
:102C100070470B4B1B7813F0400F18BF2A207047EA
:102C2000074B1B7813F0400F18BF31207047392035
:102C30007047E2207047E62070473520D0E700BF9C
:102C4000F428002030B52F4D2B785A0711D500F00D
:102C5000140100F018020C1F6142A2F1080C61413E
:102C6000DCF1000242EB0C0280F00C04914218BF30
:102C70002046190713D500F0140400F01801A4F140
:102C8000140CA1F11802DCF1000444EB0C045142D5
:102C9000514180F00C02D2B28C4218BF10466D78C0
:102CA000E90713D500F0110400F0180104F1FF3C0E
:102CB000A1F10802DCF1000444EB0C045142514143
:102CC00080F00902D2B28C4218BF1046AA0711D573
:102CD00000F0110400F01801A4F111025442A1F116
:102CE00018055441694280F009026941D2B28C4210
:102CF00018BF104600F0E70213F0100F18BF10467F
:102D000030BD00BFF428002038B5FFF717FFB0F53D
:102D1000A44F04463FD2B0F5A04F80F0A680DF2834
:102D200016D8CC2800F28680A7280AD8A42874D800
:102D3000012804D0031F9BB2A12B28BF00242046EA
:102D400038BDA0F1A8039BB21A2B6BD90024F6E77B
:102D5000B0F5804F16D2B0F5005F80F09880E7287C
:102D6000EDD9A0F580739BB2B3F5F85FEED2C0F356
:102D70000720FFF767FF0546E0B2FFF7DFFE40EAF6
:102D80000524DCE7C0B2FFF7D9FE04F470642043E9
:102D900040F42044D3E7B0F5A54F21D245F25F239C
:102DA000984251D845F23F2398420ED845F21F234E
:102DB000984242D8012300F00304A340C0F38502E7
:102DC00043EA421343F40D44B9E7012300F003043E
:102DD000A340C0F3820243EA421343F40C44AEE73B
:102DE00045F2BF2398420AD845F29F23984200F04B
:102DF0001F0034D84AF2F40343EA00249FE7A0F509
:102E0000A543403B9BB21F2BA0D8040204F4F85406
:102E100044F4204444F0F00491E7A0F1240444F485
:102E200080448CE71F4B5834E4B233F8144044F428
:102E3000884484E740F4A04481E74AF2F10300F0BB
:102E40001F0443EA04247AE7012300F00304A340AB
:102E5000C0F3820243EA421343F40A446FE7FFF7E8
:102E6000F1FE040244F4005469E700F01F00FFF78C
:102E7000E9FE03B21A0112B210F0100F18BF134688
:102E8000C4F3431443EA042343F4104457E7C0F364
:102E90000420FFF7D7FE0546E0B2FFF74FFE40EAF9
:102EA0000524DFE790F900087FB50F24104BADF83B
:102EB00004001D880F4B1B881D43ADB245FA04F377
:102EC000DB0705D4013CF9D20026304604B070BDC2
:102ED000BDF80430E6B2ADF80C3003993046FFF788
:102EE000FDFDFFF711FF80B20128EBD0EDE700BF39
:102EF000542800205228002013B502884379ADF8E9
:102F00000420019873B169B1FFF7CEFF0446014672
:102F10000198FFF71FFD2046019902B0BDE810405F
:102F2000FFF7DCBDFFF734FD0446F4E71FB5ADF84D
:102F300004000198FFF7B8FFBDF80430ADF80C307D
:102F40000399FFF7CBFD05B05DF804EBFFF7DCBE9E
:102F500008B503792BB30088FFF7E8FFC3B2C0F3CD
:102F60000330062812D094BF0E30063000F00F0058
:102F7000012812D8F02B12D004D8E72B8CBF0020E8
:102F8000012008BDF43B58425841FAE7F12B18BF25
:102F9000E72B94BF01200020F3E70020F1E7012098
:102FA000EFE71846EDE700207047000084B001907D
:102FB00003F12C00104B03EB4003D8789B782038AA
:102FC000703B4B4302FB003200209DF80430002A86
:102FD000B8BF3F3203EBA2138DF80430019BDAB285
:102FE00062F30700C3F3072262F30F20C3F3074322
:102FF00063F3174004B0704702F5000884B00190F5
:1030000003F12C00104B03EB4003D8789B78203859
:10301000703B4B4302FB003200209DF80430002A35
:10302000B8BF7F3203EBE2138DF80430019BDAB2B4
:1030300062F30700C3F3072262F30F20C3F30743D1
:1030400063F3174004B0704702F5000884B00190A4
:1030500000209DF8102003EB430302EB53038DF88F
:103060000430019BDAB262F30700C3F3072262F374
:103070000F20C3F3074363F3174004B07047000009
:103080001FB5124C2C3104EB4104E3780190A3F1FD
:103090002001C3F120035BB249B231EA210128BF0C
:1030A0001946A3789B1A0B44034400208DF8043082
:1030B000019BDAB262F30700C3F3072262F30F2029
:1030C000C3F3074363F3174004B010BD02F50008D3
:1030D00084B0019000200B4B03EB410393F85B306D
:1030E0009B1A8DF80430019BDAB262F30700C3F338
:1030F000072262F30F20C3F3074363F3174004B0C2
:10310000704700BF02F5000884B0019000200B4B0F
:1031100003EB410393F85A309B1A8DF80430019B5E
:10312000DAB262F30700C3F3072262F30F20C3F39E
:10313000074363F3174004B0704700BF02F500086F
:1031400084B0019000208DF80420019BDAB262F374
:103150000700C3F3072262F30F20C3F3074363F3AF
:10316000174004B070470000144B84B003EB4103D8
:10317000E42193F85A3001904B43C2EB13231C33E4
:10318000002BB8BF5B42DB00C3F1FF031BB2C0F3EF
:10319000074023EAE373434300201B128DF80630F7
:1031A000019BDAB262F30700C3F3072262F30F2038
:1031B000C3F3074363F3174004B0704702F50008F8
:1031C0000346DA680846511C10B4D96019698A426E
:1031D00007D21C681CB15968234610BC18479B686D
:1031E000985410BC70470000014B1B68184700BF83
:1031F000040C00202DE9F0471F46089B054603F00C
:10320000020A9B0789461446D0F80C800FD04C4424
:103210004C450ED1BAF1000F15D1BDE8F087202141
:103220002846FFF7CDFF0136BE42F8D3EFE716463A
:10323000FAE7284614F8011DFFF7C2FFE8E720214E
:103240002846FFF7BDFFEB68A3EB0803BB42F6D3AC
:10325000E3E700002DE9F0438BB09646DDE91285E7
:10326000149CF1B9220517D4302201218DF80820D1
:1032700024F01004A7073DD404F00102002D37D03C
:10328000002A37D0BEF1000F02D114F00C0F00D08D
:10329000013D0A46302625E0102BEBD124F0100426
:1032A000E8E714F0200F14BF412261220F460021ED
:1032B0000DF1080C0A3AB7FBF3F903FB1976092E56
:1032C00094BF3036B618BB4201F101018CF80060A2
:1032D000D0D820294F460CF1010CECD1CAE702AF3F
:1032E000BE540132954201D9202AF8D1302606E099
:1032F000002ACED10A46F9E702AFBE54013290450A
:1033000001D9202AF8D1082B03D1914238BF24F0EB
:10331000100442F2100634423CD026051FD4F2B10C
:10332000904501D095421AD1914201D2013A16D06E
:103330002B4EDE40F70724D591424DD2102B02F1DF
:10334000FF3212D1A60632D4202A13D120222B46D6
:10335000009402A9FFF74EFF0BB0BDE8F083102BDD
:10336000F0D0022B0DD1202AF0D002F128036221E7
:103370006B4403E0782102F128036B4403F8201C1E
:103380000132202AE2D0302102F128036B4403F8F5
:10339000201C0132202AD9D0BEF1000F0ED02D21E1
:1033A00002F128036B4403F8201C0132CFE7202AE6
:1033B000CCD002F1280358216B44DFE7610704D524
:1033C00002F128032B216B44EDE72307BFD502F15F
:1033D000280320216B44E6E7102BC4D1B2E700BFDD
:1033E000040001002DE9F04F80460E46154687B0D7
:1033F0003178A9B9D8F800306BB9D8F8102052B19B
:10340000D8F8081039B1D8F80C309A4298BF02F1B8
:10341000FF330022CA54D8F80C0007B0BDE8F08F83
:10342000252906F1010603D04046FFF7C9FEDFE774
:10343000002406E02D2B19D0302B23D144F00104B9
:103440001646324612F8013B2B2B12D0F2D8202B15
:1034500012D0232B13D02A2B58D155F8047B1646B3
:10346000002FBCBF44F002047F4217E044F0020486
:10347000E6E744F00404E3E744F00804E0E744F03E
:103480001004DDE7A3F130010929E4D83246002712
:1034900013781646A3F13001092930D933782E2B41
:1034A0003FD1737844F40064A3F13002092A35D87F
:1034B0004FF0000A0A20721C13781646A3F130015F
:1034C000092925D9334613F8012B6C2A39D031D874
:1034D000682A3DD06A2A45D016F8011B7829A3D85E
:1034E000632942D8622900F08A80632900F0B38002
:1034F000252999D0582997D144F020047DE00A214C
:1035000001FB07330132A3F13007C1E70027C5E70C
:1035100000FB0A330132A3F1300ACDE72A2B03D096
:1035200001364FF0000ACDE755F8043B023623EA96
:10353000E37AC7E7742A01D07A2ACDD144F4007423
:103540000BE072786C2AF9D144F4C0640236C3E708
:103550007278682A03D044F080041E46BCE744F029
:10356000C004F3E744F48064F7E70122A1F16403A7
:10357000DBB29A407F4B1A4013D1732900F093803D
:1035800070297FF451AF55F8041B44F4005444F003
:103590000104002940F0E3800A23052276490094C3
:1035A0008AE0642901D0692922D144F480440A23A5
:1035B00024F01004220548BF24F00104600404F440
:1035C00080622AD5002A7FF413AFA10505F1040912
:1035D00019D5296800294FEAD17202940197CDF8D4
:1035E00000A0B8BF49424046FFF734FE4D46FFE613
:1035F0006F2906D0DBD97829D9D11023DAE7022345
:10360000D8E70823D6E7620602D595F90010E1E76E
:103610002006DED5B5F90010DCE7002A7FF4E8AE1D
:10362000A10524F00C0005F1040905D502900197CD
:10363000CDF800A02968D6E7620606D529780022D1
:1036400002900197CDF800A0CDE7296814F0800F13
:1036500018BF89B2F3E714F0020422D04FF0010939
:10366000404615F8041BFFF7ABFD002C3FF4C0AE3D
:103670004F457FF6BDAE2021404609F10109FFF715
:103680009FFDF5E720214046FFF79AFD09F101096A
:10369000B945F7D307F10209002F18BFA9F10109B5
:1036A000DEE7A146F2E755F804BBBBF1000F07D1F6
:1036B0003B460622314900944046FFF79BFD97E6C2
:1036C000BAF1000F14BF52466FF00042D9465A4477
:1036D00099F8001009B14A450DD114F40063A9EB23
:1036E0000B09049302D0D14528BFD14614F002043F
:1036F00015D14A4609E009F10109E9E720214046D0
:103700000592FFF75DFD059A01329742F6D8A7EBC7
:1037100009024F4538BF002209F1010991440BF11C
:10372000FF3204E040460592FFF74AFD059A12F881
:10373000011F39B1049B002BF4D0AAEB02001BEB54
:10374000000FEFD1002C3FF453AE4F457FF650AE43
:103750002021404609F10109FFF732FDF5E70A2370
:103760004046019302941023CDF800A0FFF772FDAC
:103770003EE600BF210812001900010812000108EE
:1037800030B50E4C2379B3B9302282F311880C493D
:103790000C48CA698B6055682843506055680A48D0
:1037A00028435060094A136102220A7183F3118889
:1037B0000120207130BD0220FCE700BF482400201A
:1037C0005024002023016745AB89EFCD0020024043
:1037D0000A4A13797BB1302383F311880849C869F9
:1037E000036943F08003036101200023087183F320
:1037F0001188137170470220704700BF48240020D1
:1038000050240020094B73B51D68CB43ADF806303A
:10381000074B4119186802220368DC680DF10603A2
:10382000A047B0FA80F0400902B070BD080C00203B
:103830007024002038B50D4B0D461C680C4B044419
:10384000186803685B68984743690120195B002387
:10385000084C094A20701370237014781CB1184664
:1038600013702B8038BDCB43FBE700BF080C002052
:1038700070240020C8120020C912002030B5294A47
:1038800085B0C0F3074310F47F4FD25C0190C0F3C2
:10389000072543D00620FF239DF80440591B6043B1
:1038A000B0FBF3F06FF05403434303EB440303EB2B
:1038B0004303DBB203FB05F4C3F1FF036B432412A4
:1038C0001B12C4F1FF04C3F1FF035143544353439C
:1038D000091224121B1206281BD8DFE800F0040688
:1038E0001311161A040014461A460020D2B262F3CD
:1038F0000700E4B264F30F2061F3174005B030BD58
:10390000134622460C461946EFE71C4613460A4664
:10391000F9E713460A4621461C46E6E711461446D7
:10392000E3E700BFC1F20008C82A28BFC82213B5C8
:103930008DF802208DF800008DF8011000981C46CB
:10394000FFF79CFFC0F30722C0F3074362702070AB
:10395000A37002B010BD0000084A1378032B09D8E9
:10396000012161F387031370D378C82B84BFC82368
:10397000D3707047532BF7D91421F2E7D0250020DC
:10398000064B1B78C3F30002DB0706D4044B5A70C6
:103990001A709A701A71DA705A717047D025002027
:1039A000D8250020F8B505460D4B04799E78DF78C0
:1039B00020463A4631460B4BFFF7B6FF04F17F0035
:1039C000094B3A463146C0B2FFF7AEFFFFF7D8FFCA
:1039D000AB78DB074CBF013404F1FF342C71F8BD28
:1039E000D0250020D8250020DB2500202DE9F04738
:1039F00083784FF0000813F0010F14BF4FF0FF352C
:103A00000125DFF884A0214FDFF8849000240426EC
:103A10008AF801408AF800408AF802403A78224445
:103A200053B2022B24DD02F0010343450BD199F878
:103A300003205346724399F8021099F80100C2F32B
:103A40008702FFF771FF013E2C44E7D108F1010323
:103A5000022B4FF001080AF1030AD7D1FFF790FFBC
:103A600045453B780BD103B15D1E3D70BDE8F08745
:103A7000023252B233EA230328BF1346D5E701339B
:103A800003F00105F1E700BFD8250020C012002097
:103A9000D0250020044B587019709A701871D97095
:103AA0005A71FFF76DBF00BFD825002013B50B4C2E
:103AB0002378DB0710D501ABFFF736FF2378DB0750
:103AC0000AD59DF806209DF804109DF8050002B067
:103AD000BDE81040FFF7DEBF02B010BDD0250020CA
:103AE00038B505460479054B054A9978125D587832
:103AF0000134FFF7DBFF2C7138BD00BFD02500205B
:103B0000ACF1000838B505460479044B2046DA7854
:103B100099780134FFF7CAFF2C7138BDD0250020F9
:103B2000012810B501D8C0B210BDB0F5F75F88BF4D
:103B3000FF224FF001019EBF42090832D2B28B181A
:103B40005B1003FB03F4A4B2A04206D2013BDAB23D
:103B50009142F4D90139C8B2E6E7FF2B02D0013314
:103B6000D9B2F5E71846DFE71FB5019048B24942E0
:103B700049B230EA200028BF08465243C0F138005D
:103B800000FB002080B21C46FFF7CAFF00EB40009C
:103B9000044400208DF80440019BDAB262F3070070
:103BA000C3F3072262F30F20C3F3074363F3174005
:103BB00004B010BD430658BF034610B548BF80F09F
:103BC000FF030E4C48BF03F00F02C3F3011304EBD5
:103BD0004301497854BF00F00F0201324A4314F800
:103BE000133010F0800F03EB2213DBB2C3F100029D
:103BF000D2B218BF134683F0800010BDA4F10008B4
:103C000010B5044610B9C90FC80110BD80EAE072B2
:103C1000A2EBE07212B2002902EB01030DDB891A5C
:103C2000490191FBF3F1C1F12001C8B24342DBB27B
:103C300030EA240028BF1846E7E75B01521A93FBDD
:103C4000F2F3C3F16003D8B2F0E71FB501909DF81D
:103C500018001C1A1046FFF7D3FF241A00208DF815
:103C60000440019BDAB262F30700C3F3072262F358
:103C70000F20C3F3074363F3174004B010BD1FB513
:103C8000019010461C46FFF7BBFF20448DF804004E
:103C90000020019BDAB262F30700C3F3072262F34C
:103CA0000F20C3F3074363F3174004B010BD0000B7
:103CB00070B5944D2B6813F0010610D16C68304636
:103CC00001222146904BFEF789FD01202146073055
:103CD00004F09CFB01232A68B3401343C1E099011F
:103CE0000ED48A4A884B12786C6882F0010219203F
:103CF0001A7021460122FEF771FD19260120E5E721
:103D0000DA0109D46C681820012221467E4BFEF7A7
:103D100065FD18260120D9E713F4000208D16C686C
:103D200017202146784BFEF759FD17260120CDE7D5
:103D30009E0709D401226C6810462146744BFEF799
:103D40004DFD01200646C1E75C0709D46C680220DE
:103D5000012221466F4BFEF741FD02260120B5E707
:103D6000180712D407F0A2FE6B4B6C689A68664B7A
:103D7000C2F3402282F0010203201A702146012280
:103D8000FEF72CFD03260120A0E7D9060ED407F08C
:103D90008DFE5D4B6C6800F001001870012204205C
:103DA0002146FEF71BFD042601208FE79A0612D458
:103DB0005A4B6C689B6805205B0754BF0122584B27
:103DC000214648BF1A78504B05261A700122FEF78B
:103DD00005FD01207AE75E0609D46C680620012201
:103DE0002146504BFEF7FAFC062601206EE713F041
:103DF00080021AD14C4B1B78022B0DD14B490B7012
:103E0000414B1A706C680720012221463E4BFEF799
:103E1000E5FC0726012059E723B9444A13703A4AC2
:103E20001370EFE7012BEDD1F7E7DC0509D46C68DF
:103E30000820012221463E4BFEF7D0FC0826012037
:103E400044E713F4006208D16C680B2021462E4B26
:103E5000FEF7C4FC0B26012038E7D80403D443F452
:103E600080532B6070BD13F4005208D16C680D2094
:103E70002146254BFEF7B2FC0D26012026E713F460
:103E8000804208D16C680E2021461F4BFEF7A6FC2D
:103E90000E2601201AE713F4004208D16C680F20A7
:103EA0002146194BFEF79AFC0F2601200EE79905D3
:103EB00009D46C68092003222146154BFEF78EFCBD
:103EC0000926032002E75A0509D46C680A20042257
:103ED00021460F4BFEF782FC0A260420F6E69B02E1
:103EE0000FD4144A084BD27A6C68003A18BF0122EA
:103EF00015201A7021460122FEF770FC15260120BC
:103F0000E4E6FEE73C0D0020C2290020C129002084
:103F1000C0290020BF2900200010014000140140EA
:103F2000BE290020BD290020BC290020BB2900207B
:103F3000BA290020A92B002038B50AF00FFA3F4C0F
:103F400090B10AF0F7F93E4A1378042B52D8DFE813
:103F500003F0030D1C263200552805D101231370F0
:103F6000384A1370384B1870207838BD5528FBD06C
:103F700003283FD13349354B18700B785D1C0D7009
:103F80003149C85402231370EEE7022832D82D4974
:103F90000B785D1C0D702C49C8540323F3E70428EB
:103FA00028D828492A4B18700B785D1C0D702649BB
:103FB000C8540423E7E7234D29784B1CDBB22B7050
:103FC000214D68542149097801319942CCDAAB7806
:103FD000012B13D0022B1DD063B91E4B19681C4B4B
:103FE00003291B7808D8994204D1B0FA80F01A4B03
:103FF000400918700023C6E7042BF5E7154B196834
:10400000134B03291B7803D89942F3D12070F1E7B1
:10401000042BFAE70F4B1B68032BEBD90C4B1B78D7
:10402000042BE7D1AA2803D101210C4B1970E1E739
:10403000BB28DFD10021094BF8E700BF9D2B0020F2
:104040009C2B00209B2B0020732B0020722B002028
:10405000712B0020B80E0020A82B0020702B002010
:1040600038B5064C256807F05BFE401B642804D970
:10407000FFF786FC07F054FE206038BDC412002014
:1040800070B5304D90B00AF055F92B78032B4CD811
:10409000DFE803F0020C1D27552805D101232A4A29
:1040A0002B701370294B187010B070BD5528FBD0C1
:1040B000831EDBB21E2B38D8234A254B1870137889
:1040C000591C1170214AD05402232B70ECE70A28A6
:1040D0002BD11D4A1378591C11701C4AD05403234C
:1040E000F3E71949194E0A78531CB054184ADBB249
:1040F00014780B70621C9A42D6DA4022002168467E
:104100000AF0B8FE6A4600230136D9B28C420ED8B6
:104110002346FF21C4F140029A420EDC0D484022A2
:1041200050F8D43F69465B6898470023CDE716F8FE
:10413000011F013302F8011BE7E70DF803100133FB
:10414000EAE700BF522B0020512B0020292B002032
:10415000282B00204C0D00204FF4805208B5002180
:1041600003480AF087FE41F20802024B1A6008BDBC
:1041700048140020482400202DE9F047334EDFF892
:10418000D090357899F80040012D3BD10022314B79
:10419000DFF8C4801A7098F80030304F23B907F068
:1041A000BFFD88F8005038603D6807F0B9FD42F265
:1041B0000F73401B98423DD800231A4644F0200458
:1041C00089F8004090214C2007F0C8F93378022B81
:1041D00034D1204B224C1A7822B901221A7007F0F0
:1041E0009FFD2060246807F09BFD42F20F73001BC7
:1041F000984223D8BDE8F0470023902219464C206E
:1042000007F0ACB9E5B9134B1D70134B1A7802B126
:104210001D70144B1B78142B0CD8134B44F0200446
:104220001B7889F80040052B4FF000031A46C9D8C7
:104230001946C8E724F0200489F80040BDE8F0875B
:1042400024F0200489F80040C0E700BFBC2900200A
:10425000B82900200929002008290020042900206D
:10426000FC28002000290020A629002010B5184BAA
:104270001B78C3B1174B93F90030002B13DAFEF70C
:10428000EFFB154C20226070144920460AF048FFCD
:10429000E8B12146202211480AF046FE2046BDE83A
:1042A000104007F03BBCFEF7DBFB0D4C08222070F2
:1042B0000C4920460AF034FF48B12146082209483B
:1042C0000AF032FE2046BDE8104007F0F7BB10BDF3
:1042D000340D0020F428002058100020D52700209D
:1042E00078100020F527002028B1034B1A781043DE
:1042F0001870FFF7BBBF70474F28002008B528B1E2
:10430000FEF7E4FBBDE80840FFF7B0BF08BD0000C2
:1043100028B1034B1A7810431870FFF7A7BF7047F6
:104320005728002030B1044A137823EA00031370A1
:10433000FFF79CBF704700BF5728002000200847A8
:1043400010B500240E4B1C7007F0D0FC204607F07F
:1043500017FC204607F02EFC0A4B1C70FFF786FF67
:104360002146062208480AF085FD084B1C70084BC0
:104370001C70084B1C70BDE8104007F043BD00BF27
:104380004F28002057280020342800203328002000
:10439000322800203128002038B5084C084D236809
:1043A000AB4209D0FFF7CCFF064B22681A6007F03A
:1043B0007DFB054B2560187038BD00BFA02B002089
:1043C000A40E0020A42B00209D2B00208318B3F501
:1043D000805F10B40C4605D803490144204610BC48
:1043E0000AF0A2BD10BC704748140020002307B596
:1043F00001220DF107018DF80730FFF7E7FF9DF867
:10440000070003B000BD0320FFF7F0BF002307B58E
:1044100002220DF10601ADF80630FFF7D7FFBDF817
:10442000060003B000BD07B5042200230DEB020116
:104430000193FFF7CBFF019803B000BD0F2008B533
:10444000FFF7F1FF0D28024605D1BDE80840252001
:104450000449FFF7BBBF0D22BDE808400021014819
:104460000AF008BDA92B00202DE9F04FDFF8D8A0F5
:1044700089B083469AF8000007F074F8334F344B44
:10448000C4B21D883B79ADF810005B085D43314B29
:10449000C0F30729C5F3072503EB440603F582782B
:1044A000E3B2994507D8B9F1540F8CBF0020012021
:1044B00009B0BDE8F08F9AF8013018F804201A42CC
:1044C0003FD096F85B2096F85A10203A02FB02F093
:1044D000703901FB010080B203920291FFF720FBCB
:1044E0000095034697F801C0B87897F803E04CEAC6
:1044F0000020039A029940EA0E40D8478DF8140034
:10450000C0F30723C0F307408DF816008DF815306F
:10451000059BADF818301B0C8DF81A300698FFF784
:10452000ADF9C0F30721C0F307438DF81C008DF8E7
:104530001D108DF81E30C2B2DBB22046C9B207F0A2
:104540000DF802360134ABE7280C0020402800208B
:10455000E025002002F500082DE9F04FDFF8C0A0AB
:1045600085B083469AF8000006F0FCFF2D4F2E4BD5
:10457000C4B21D883B79ADF800005B085D432B4B4E
:10458000C0F30729C5F3072503EB440603F582783A
:10459000E3B2994507D8B9F1540F8CBF0020012030
:1045A00005B0BDE8F08F9AF8013018F804201A42DF
:1045B00032D0BB78787897F803C096F85B2096F8ED
:1045C0005A1040EA0320203A70392B4640EA0C404A
:1045D000D8478DF80400C0F30723C0F307408DF8D7
:1045E00006008DF80530019BADF808301B0C8DF8E6
:1045F0000A300298FFF742F9C0F30721C0F30743DE
:104600008DF80C008DF80D108DF80E30C2B2DBB2B3
:104610002046C9B206F0A2FF02360134B8E700BF57
:10462000280C002040280020E025002002F500088A
:104630002DE9FF47DFF89480824698F8000006F0E5
:1046400091FF234E234A337915889B0803FB0555B8
:10465000DFF88490C0F30727C5F30725C4B2E1B2A1
:104660008F4206D8542F8CBF0020012004B0BDE833
:10467000F08798F8013019F804201A4223D0B27854
:104680007378F07843EA022343EA00402A46D04791
:104690008DF80400C0F30723C0F307408DF806002F
:1046A0008DF80530019BADF808301B0C8DF80A30F1
:1046B0000298FFF7E3F8C0F30743C2B2C0F3072143
:1046C000204606F04BFF0134C9E700BF280C00204C
:1046D00040280020E025002006F600082DE9F04FD4
:1046E000DFF8BC9089B0039099F8000006F03AFF1B
:1046F0002C4F2D4B04461D883B79DFF8B0A09B085A
:104700005D43C5F3072505F14000C0B2FFF752FA3B
:1047100080384FFA80FB2846FFF74CFAA0F180065C
:10472000C4F3072876B2E4B2E3B2984507D8B8F1EB
:10473000540F8CBF0020012009B0BDE8F08F99F81C
:1047400001201AF80410114228D00095BA78787820
:1047500097F803C040EA02205946324640EA0C402E
:10476000DDF80CC0E0478DF81400C0F30723C0F358
:1047700007408DF816008DF81530059BADF8183000
:104780001B0C8DF81A300698FFF778F8C0F3074332
:10479000C2B2C0F30721204606F0E0FE0134C3E7B1
:1047A000280C002040280020E025002006F6000804
:1047B0002DE9F04F4C4B8DB082461878049106F0ED
:1047C000D1FE4A4BC4B21B78DFF824910293494BC7
:1047D000ADF8200003EB440503F58273C0F307280E
:1047E0000393E3B2984507D8B8F1540F8CBF00206B
:1047F00001200DB0BDE8F08F3B4B039A5B78125D52
:104800001A422DD003223C4909A80AF08DFB5646D6
:104810000023DFF8D8B00BEB0A070299F2B29142FD
:1048200021D899F8032053431B128DF82630099B99
:10483000ADF828301B0C8DF82A300A98FFF71EF8C7
:10484000C0F30721C0F307438DF82C008DF82D101D
:104850008DF82E30C2B2DBB22046C9B206F07EFE21
:1048600001340235BDE717F8012F95F85A10387A50
:10487000891A95F85B200793121A02FB02F001FBDC
:10488000010080B206920591FFF74AF9024699F8B5
:10489000040006F10C0C0130FF2828BFFF200BEBB1
:1048A0004C0C9CF801E09CF802C0079B4EEA0C2ED1
:1048B0000EFB00F08DF82630C0F30F201346009059
:1048C000069A05990998DDF810C0E047C0F3072360
:1048D0008DF82530C0F307438DF826308DF824007D
:1048E000DBB2013699E700BF280C0020A02500208C
:1048F0004028002002F50008412800200F4B10B589
:104900001B784BB10024002320461A461946013477
:1049100006F024FE532CF6D1094B0A4A1B78127874
:104920001343DBB213B1084B1B7833B9BDE8104019
:104930001A461946184606F013BE10BDF728002087
:10494000BC290020002900209E290020704708B5BE
:104950000346A0B3021FD2B2A02A05D807F08AF9F5
:10496000BDE80840FFF782BC00F12002D2B2072A5E
:1049700007D800F0070301209840C0B2FEF7A6F860
:10498000EEE700F15B02D2B2022A04D8BDE808408B
:10499000002007F0F5B800F15802D2B21A2A04D864
:1049A000BDE80840002007F005B93333DBB2122B15
:1049B00005D806F0EFFFBDE8084007F023BA08BDB0
:1049C00010B50446C0B2FFF7C2FFA4F1E003072B05
:1049D0002046BDE8104094BF01490249FFF7AEBC34
:1049E000FD4200082543000810B5044600285AD0AF
:1049F000031FDBB2A02B27D82B4B1B787BB90023DE
:104A00002A4A12F8011FA14218D00133062BF8D10F
:104A1000204607F0EBF8BDE81040FFF727BC244B19
:104A200093F90030002BEADA224B00F0070103EB88
:104A3000D0039A7801238B401A42E9D0204607F030
:104A400019F9FFF713FCE3E700F12003DBB2072BB2
:104A500008D80123184A00F007041178A3400B433B
:104A60001370D8E700F15B03DBB2022B05D8BDE879
:104A70001040243880B207F083B800F15803DBB24D
:104A80001A2B06D8BDE810400C4A32F8130007F084
:104A900091B83334E4B2122C05D806F019FFBDE802
:104AA000104007F0AFB910BD340D00207910002080
:104AB000F4280020581000204F28002090F900080A
:104AC00010B50446A0F1E003072B94BF0449054943
:104AD000FFF734FCE0B2BDE81040FFF785BF00BF30
:104AE000E9420008114300087FB5084B0A460193CC
:104AF00000230293039304936FF00043014601A83F
:104B00000593FEF76FFC07B000BD00BFE931000858
:104B10000FB407B504A951F8040B0191FFF7E4FFA6
:104B200003B05DF804EB04B07047000070B5164C9C
:104B3000237843B3FFF782FC144B3C255E790023B6
:104B40002370002009F0EEFB013DFAD14FF47A709A
:104B500007F034FD55230E4C042E28BF0426237085
:104B600014230C49201D6370A570E6700AF0E8FA62
:104B700020461621657509F0E7FBBDE870404FF44B
:104B8000FA7007F01BBD70BDB62B0020A92B0020CA
:104B9000BC0E0020E4F90008002210B53C24134BA1
:104BA0001A70002009F0BEFB013CFAD1104C42F211
:104BB000107007F003FD22680E4B9A4204D1FFF7F4
:104BC000BFFB0D4B1B6823604FF4FA6007F0F6FC47
:104BD00055230A4A04211370022353700023937053
:104BE000D3701046BDE8104009F0AEBBA82B0020E2
:104BF000A02B0020A40E0020A42B0020BC0E00201F
:104C000070B5044607F08CF801222D4B18602D4B2F
:104C10001A702D4B1B78002B47D0062221462B48BB
:104C20000AF07EFA80B1FFF781FF2146062227486D
:104C30000AF07AF9552009F075FB062009F072FB9D
:104C40000621224809F080FB214D2C6807F068F806
:104C5000204B001B07281E782CD807F061F88442EF
:104C600028D007F05DF8022E22D0031B082B1DD0A0
:104C70000834241A002140F2E730174E4FF47A72BC
:104C80000023E4FB0601FDF7F1FA07F097FC07F0BB
:104C900047F8286007F044F8104B186007F040F818
:104CA00000220F4B18600F4B1A6070BD0120ECE71B
:104CB000C820EAE7022EFBD04FF44870E5E700BFBA
:104CC0006C2B00206A2B0020A82B0020642B0020D6
:104CD000602B0020A00E0020A08601005C2B00208D
:104CE000582B0020542B0020F8B5044607F018F884
:104CF0000127274B1860274B1F70274B1B78002B71
:104D00003CD0FFF713FF552009F00CFB234D032087
:104D100009F008FB2046032109F016FB2C6806F079
:104D2000FFFF1F4B001B07281E782CD806F0F8FF4A
:104D3000844228D006F0F4FF022E22D0031B082B59
:104D40001DD00834241A002140F2E730154E4FF4EC
:104D50007A720023E4FB0601FDF788FA07F02EFCC7
:104D600006F0DEFF286006F0DBFF0F4B186006F050
:104D7000D7FF00220D4B18600D4B1A60F8BD384666
:104D8000ECE7C820EAE7022EFBD04FF44870E5E7D5
:104D90006C2B00206A2B0020A82B0020602B002009
:104DA000A00E0020A08601005C2B0020582B0020C4
:104DB000542B00202DE9F041044606F0B1FF0126F6
:104DC0002A4B18602A4B1E702A4B1B78002B41D0AF
:104DD000FFF7ACFE552009F0A5FA092009F0A2FA68
:104DE000304609F09FFA0821204609F0ADFA06F096
:104DF00097FF214B0025186006F092FF1F4B204FB4
:104E00001860204B3C681D6006F08AFF1E4B001B9B
:104E1000072893F8008023D806F082FF84421FD031
:104E200006F07EFFB8F1020F18D0031B082B13D039
:104E300008342946241A40F2E730144D4FF47A72B0
:104E40000023E4FB0501FDF711FA07F0B7FB06F0BC
:104E500067FF3860BDE8F0813046F6E7C820F4E728
:104E6000B8F1020FFAD04FF44870EEE76C2B002037
:104E70006A2B0020A82B00205C2B0020582B002040
:104E8000602B0020542B0020A00E0020A0860100E3
:104E90002DE9F041044606F043FF4FF00108284B8E
:104EA0001860284B83F80080274B1B78002B3CD0E0
:104EB000FFF73CFE552009F035FA152009F032FACB
:104EC0001521204609F040FA06F02AFF1F4B002565
:104ED000186006F025FF1E4B1E4E18601E4B3468EE
:104EE0001D6006F01DFF1D4B001B07281F7822D8F0
:104EF00006F016FF84421ED006F012FF022F18D0D3
:104F0000031B082B13D008342946241A40F2E7303B
:104F1000134D4FF47A720023E4FB0501FDF7A6F967
:104F200007F04CFB06F0FCFE3060BDE8F081404627
:104F3000F6E7C820F4E7022FFBD04FF44870EFE704
:104F40006C2B00206A2B0020A82B00205C2B00205B
:104F5000582B0020602B0020542B0020A00E002096
:104F6000A086010010B50446FFF7AAFD2046BDE863
:104F70001040FFF725BD00002DE9F041674D2B786B
:104F8000B3B1674B1B789BB1664B1B68022B3CD0BF
:104F9000032B3ED0012B3FD10022902311465420F9
:104FA00006F0DCFA002353201A46194606F0D6FA1A
:104FB0005D4B5E4E1B783478012B6BD12D785C4FA6
:104FC000002D4BD144F00204347006F0A9FE554B7D
:104FD00038601B68022B2ED0032B35D0012B40F0FC
:104FE0009480544B1A78544B1B789A421FD99023C3
:104FF0002A462946542006F0B1FA002353201A46C7
:105000001946BDE8F04106F0A9BA0023902290218C
:10501000C5E700231A46FAE70023902219465320D9
:1050200006F09CFA002354201A461946BEE70023D6
:105030001A461946DEE73F4B1A783F4B1B789A42D7
:10504000F5D90023902207E03A4B1A783A4B1B78A7
:105050009A42ECD92B462A469021CBE73D6806F0D0
:105060005FFE401B013011D02E4B44F002041B6840
:105070003470022BE5D0032B05D0012B45D1002243
:1050800090231146B6E700231A46E5E724F0020410
:1050900034703AE0022B3ED12D78284FC5B944F048
:1050A0000404347006F03CFE224B29461A78224B49
:1050B00038601B7853209A4288BF90222B4698BFB5
:1050C0002A4606F04BFA2B462A462946542098E7F2
:1050D0003D6806F025FE401B013018D000239022C9
:1050E0001946532044F00404347006F037FA0023C4
:1050F00054201A46194606F031FA114C237823B190
:105100007320FFF72FFF00232370BDE8F08124F008
:1051100004043470F1E724F00604B9E7A82B00205A
:10512000B9290020B80E0020A00E0020B8290020C8
:10513000B4290020B0290020390D0020AC2900201E
:10514000A82900202DE9F743002401251A4F3B68C8
:10515000A34203D8284603B0BDE8F083174E184B8E
:1051600030681968036821445B6998478146D6F81E
:105170000080D8F8003040469B6901A99847012873
:1051800009D049EA0000C0B201288CBF002505F013
:1051900001050134DBE740F2E73C00210198DFF82C
:1051A00024E04FF47A72E0FB0EC100236046FDF765
:1051B0005DF807F003FADCE70C0C002070240020F7
:1051C000100C0020A08601002DE9F347FFF7BAFF7D
:1051D000002864D0FEF7D4FA00240546314E20465C
:1051E0003188FEF70FFB002857D00234B4F5805FFA
:1051F00006F10206F3D141F2010100201226DFF888
:10520000A4C0294ADFF8A4E001391CD16E4641F25E
:105210000807CDE9002E20463188FEF7F3FA20B1C9
:105220000234BC4206F10206F5D14000C4B2012DA1
:1052300001D1FEF7CDFA41F208021D4B1A6020465B
:1052400002B0BDE8F0871CF8013B4FEA4E195A4006
:10525000A2FB063806FB0E884FEA421A49EAD269D9
:1052600013EB0A0348EB09084FEAC21A9B184FEAEE
:10527000CE194FEA02274EEB080849EA526913EBB0
:105280000A034FEA0E2E48EB09084EEA126EDB19AC
:1052900048EB0E0EBE44C218B6E70446C7E7044604
:1052A000CDE700BF4814002025232284E49CF2CBE4
:1052B00048240020044B1B68B3F5005F01D3FFF7BF
:1052C00083BF0120704700BF4824002010B5074C61
:1052D00001462068FEF796FA30B123680233236056
:1052E000BDE81040FFF7E6BF10BD00BF4824002016
:1052F0008318B3F5805F2DE9F34704460E46154643
:1053000000F28B80464F07443946304609F008FFCB
:10531000002800F082802A463146384609F004FE13
:10532000FEF72EFA4FF0000882464FF00009012DDB
:105330002CD0E3072AD4B4F5804F37D23378727873
:1053400043EA0223012B21D8002B0CBF6FF07F030F
:105350006FF05F03002043EA542363F30700630800
:1053600063F30F2080B2FFF7B1FF012806D1023DA1
:1053700002340236002DDAD1FFF79CFFBAF1010F9B
:105380004BD102B0BDE8F047FEF722BA3F2C0DD852
:10539000307844F04003DBB243EA0020FFF796FF89
:1053A0000128EBD1013D01340136E3E7052D2F46FD
:1053B00028BF0527C4F3024343EAC703CDE90089A8
:1053C0003A4631468DF800300DF10300230A8DF87E
:1053D00001308DF8024009F0A7FDBDF80000FFF78D
:1053E00075FF0128CAD1BDF80200FFF76FFF012841
:1053F000C4D1012D0DD0BDF80400FFF767FF0128CF
:10540000BCD1032D05D9BDF80600FFF75FFF0128C9
:10541000B4D1ED1B3C443E44ACE702B0BDE8F0879C
:1054200048140020F8B50D4606461446D31D23F057
:10543000070300AFADEB030D69462846FEF7C6FF34
:1054400022466946304609F06BFE20B122463146BD
:105450002846FFF74DFFBD46F8BD37B50C4605465B
:10546000FEF7C4FFA04207D0012228460DF1070134
:105470008DF80740FFF73CFF03B030BD37B50C4651
:105480000546FEF7C3FFA04207D0022228460DF1D1
:105490000601ADF80640FFF72BFF03B030BD00005A
:1054A0000E4A10B553780446C3F38001814213D0ED
:1054B00060F38203537004201188FFF7DFFF02209E
:1054C000FDF7B6FA064B1B78DB0705D52146BDE88C
:1054D00010400448FFF71CBB10BD00BFF42800209B
:1054E0004E2800201F00010837B50C460546FEF780
:1054F0009AFFA04206D0042228460DEB0201019437
:10550000FFF7F6FE03B030BD10B504460D210F20A5
:10551000FFF7EAFF2046BDE810400D222521FFF7E6
:1055200081BF000070B50446FEF736FF00223C251F
:10553000254B1A70002008F0F5FE013DFAD148F61F
:10554000B80007F03BF8631E032B204E35D8042C1F
:1055500034D1FEF773FF7479304644F0040474715B
:105560000425FFF7D1FF1A4B55201C6008F0DAFE26
:10557000032008F0D7FE002008F0D4FE284608F0EB
:10558000D1FE012008F0CEFE4FF47A7007F016F835
:10559000552008F0C7FE032008F0C4FE002008F0E4
:1055A000C1FE284608F0BEFE012008F0BBFEBDE8A3
:1055B00070404FF47A7007F001B80124E5B2034857
:1055C0007571FFF7A1FFCEE7A82B0020A92B0020C3
:1055D000B80E002070B50446FEF7DEFE0022214B17
:1055E000214D1A70631E032B35D8042C34D1FEF7DD
:1055F00025FF6C79284644F004046C710426FFF7FB
:1056000083FF3C25194B1C60002008F08BFE013DF8
:10561000FAD148F6B80006F0D1FF5523144C1549CD
:1056200023701423201D6370A570E67009F088FDB7
:1056300016212046657508F087FE4FF47A7006F053
:10564000BDFF2046162108F07FFEBDE870404FF4F4
:105650007A7006F0B3BF0124034826466C71FFF749
:1056600053FFCEE7A82B0020A92B0020B80E002066
:10567000BC0E0020E4F9000810B50C46FEF76CF9EA
:1056800001460820FFF730FFE1B22420BDE81040BA
:10569000FFF7E3BE2DE9F743284C994623780546EA
:1056A000DF078846164645D5DFF894C09F081CF8EA
:1056B000077003F0FC03DFF88CC0042B8CF800703B
:1056C00025D101ABFEF730F92378D90707D59DF82E
:1056D00006209DF804109DF80500FEF7DBF91A4F2F
:1056E000657084F80280E670B9F1000F1AD0D4E931
:1056F0000001FFF7C1FF3B78DA071BD5E378A278FA
:105700006178124803B0BDE8F043FFF701BA022FF9
:1057100001D1E678E3E7062F01D16578DFE7092FAD
:10572000DDD1FAE73B78DB0704D53346424629460C
:105730000748E7E703B0BDE8F08300BFD0250020AD
:10574000ACF200080E2500204E280020340001088D
:105750005900010805480123C27881783232FF2AB6
:1057600028BFFF224078D2B2FFF794BFD025002097
:1057700005480123C2788178323A22EAE272407801
:10578000D2B2FFF787BF00BFD025002070B5002838
:1057900034D0142834D800F03F00224C224D237816
:1057A00060F38703237069B3D4E90001FFF764FF56
:1057B0002B78DA0705D521781C48C1F38501FFF75E
:1057C000A7F9217801221A48C1F3850109F09EFB4F
:1057D0002D78184B184E05F00105C8B100225A70FB
:1057E00015B11648FFF794F90123E278F370A17818
:1057F00060780023BDE87040FFF74CBF0120CCE784
:105800001420CAE72B78DB07DBD501460C48D6E726
:1058100001225A7006F084FA3080002DE4D0094845
:10582000E0E700BFD02500204E28002080000108BE
:10583000000C00200E25002008250020BA000108D9
:105840009C000108D3000108074B1B78C3F38500B7
:105850000130C0B2152828BF0120DB0702D5012185
:10586000FFF794BF704700BFD0250020074B1B787F
:10587000C3F38500013810F0FF0008BF1420DB07D8
:1058800002D50121FFF782BF704700BFD02500205D
:1058900010B5FDF775FF0446FFF754FCFEF75CFCFE
:1058A000012C03D1BDE81040FDF792BF10BD0000F0
:1058B000F0B5324C87B0FEF7C1FD6379304F03B1CC
:1058C0003B60012523782F4E3370FFF7E1FF4FF641
:1058D000E6610020FFF7D2FD00210220FFF7BDFDA9
:1058E000294B294603201D80FFF7B7FD4FF4A05137
:1058F0000420FFF7C3FD00210620FFF7AEFD0021C5
:105900000720FFF7AAFD00210820FFF7EDFD002189
:105910002420FFF7A2FD00211720FFF79EFD0021A4
:105920000C20FFF79AFD00210D20FFF796FD0023C4
:1059300000226846CDE9002318210822FFF772FDF6
:1059400000212020FFF7D0FD0D22002102A809F040
:1059500091FA02A8FFF7D8FD257100253B6807489A
:105960006371337865702370A570E570FFF7CCFD27
:1059700029461320FFF7B8FD07B0F0BDA92B002082
:10598000300D0020D4270020522800202DE9FF47A9
:1059900003790546002B00F0B7870121FDF7ACFA2B
:1059A000A0F5FC46A6F157030446934F032B3CD8C1
:1059B000DFE803F0020D17216B791BB301228F4B37
:1059C0001A708F4A136823F4006313601AE06B792E
:1059D000C3B10222894B1A70894A136823F4005319
:1059E000F3E76B7973B10322844B1A70844A13680E
:1059F00023F40043E9E76B7923B1824A137883F0FB
:105A0000010313703B785E0700F07E876B79002BF3
:105A100000F07A877C4B5B785D0740F17587022048
:105A200004B0BDE8F047FDF703B8784B93F8008069
:105A3000B8F1010F35D1A6F141039BB2022B4BD82F
:105A4000734BA6F140001B686C79984215D0002C6E
:105A5000D8D0FFF7BFFD06F063F96E4B186006F073
:105A60005FF905226C4B18606C4B83F800806C4B1F
:105A70001A7000226B4B1A70C4E7674E34B106F0FF
:105A80004FF9664B306083F80080BBE7366806F05C
:105A900047F940F6B733801B9842B3D85F4B1C7070
:105AA000B0E7B8F1020F17D147F64063984213D11F
:105AB0006C795D4E34B101225C4B1A7006F030F9FE
:105AC00030609FE7366806F02BF940F6B733801B4D
:105AD000984297D8554BE2E7A6F14903082B00F20C
:105AE000C180DFE803F00526BF4CBFBFBFBF5F002A
:105AF0006B79002B86D0FEF786FC012804460DD179
:105B000004210320FFF7A9FC0422494B1A80494BCA
:105B10003B4A1C70136823F004031360464B1A7849
:105B200022B100221A700122444B1A70444B012208
:105B3000A1E76B79002B3FF465AFFEF764FC042806
:105B40000ED101210320FFF788FC0122384B1A8077
:105B50000022384B1A702A4A136823F0040313609A
:105B6000364A1378002BE1D00121334B19702449B8
:105B70000B6823F020030B6000231370D6E76C79C9
:105B8000304E24B106F0CCF82F4B3060CFE73668AA
:105B900006F0C6F840F6B733801B98423FF632AFA6
:105BA000294B7CE76B7943B1284A2948137883F065
:105BB000010313700373FFF7A7FCDFF898802649F1
:105BC00098F800201AB9254B1B780A2B5BD947F6A9
:105BD00020039C4257D16B79002B54D00878204A7F
:105BE00010B1137883F0010319480B7013704370E0
:105BF0008370FFF789FC05E756280020CD28002098
:105C00003C0D0020C1290020F4280020A00E002017
:105C1000B80E002010290020D8280020A02900203C
:105C2000390D0020B0290020D42800209F29002011
:105C300052280020BF290020BE290020F028002083
:105C4000E9280020D0280020A1290020F1280020E8
:105C5000A92B0020BC290020F728002000290020C3
:105C6000F628002047F621039C42A6D16B79002B31
:105C7000A3D0924A1378002B9FD000231370904A30
:105C80001046137397E70B7823B952B98D4B1B78E5
:105C90000A2B06D8A4F5F043213B9BB2092B7FF6D3
:105CA000B1AE894B1B7823B942B9864B1B780A2BBE
:105CB00004D84E3EB6B2022E7FF6A4AE47F6446339
:105CC0009C4219D16B79C1209BB1FEF7F9FE47F6D2
:105CD0004B639C4219D1FEF796FB022835D86B79AD
:105CE0009BB37A4A7648137883F001031370C3702C
:105CF0007FE7FEF765FEEAE747F645639C420AD177
:105D00006B79C22023B1FEF7DBFEE32C0FD00CE051
:105D1000FEF756FEF9E747F646639C4240F09F8542
:105D20006B79E2204BB1FEF7CBFEE72C0DD16B79FE
:105D30005BB1664B1B7843B164E6FEF741FEF4E7C6
:105D4000E3206B79D3B1FEF7BBFE98F80030C3B106
:105D500045F2222224F005039BB293421BD047F662
:105D600052639C427BD15A48FEF7D2FE6B79594C64
:105D7000594E002B63D0012323709FE6FEF720FECF
:105D8000E3E747F64D639C42E2D16A79534B002A20
:105D90003FF471AECBE66B798BB1514ED6F80080F3
:105DA00005F0BEFFA0EB0800C7284E4B43D81A7879
:105DB000002A3ED101221A7005F0B2FF30606B79E3
:105DC000002B00F072850020474BA4F5E0461870C8
:105DD000B3B2222B00F251850420FEF717FB434C8F
:105DE000013E2080212E00F25A81DFE816F0960154
:105DF0000F029E0168016C01A2017001A601B201AF
:105E00007C0107028001B6018401BA01EE0188011C
:105E1000BE01F6018E01C401CC017401AA01780112
:105E2000AE019201C801E5010002050263019A0179
:105E3000170201321A701A78002AC0D1BAE7336803
:105E4000B3F5FA6F05D22A4B1B782BB1A820FFF7C8
:105E500089F800232370D5E547F64E60F7E747F64B
:105E600056639C4202D16A79224B90E747F655630C
:105E70009C420BD16A79204B002A3FF4FCAD0122F1
:105E80001A7005F04DFF1D4B1860BBE51A2C0BD1A5
:105E90001B4B1B78002B00F01B8552206B79002BCD
:105EA0006CD0FEF70DFEADE5042C2BD1144B1B7806
:105EB000002B00F00D8550206B79F0E7F1280020D1
:105EC000A92B002000290020F6280020BE29002050
:105ED000EC000108E8280020E42800209D2900208B
:105EE00048280020A22900204C280020F428002067
:105EF000F3280020B9290020E0280020DC28002019
:105F0000F2280020162C07D1A44B1B78002B00F0A0
:105F1000DF8451206B79C2E7072C07D19F4B1B7898
:105F2000002B00F0D5844F206B79B8E7522C07D1B5
:105F30009A4B1B78002B00F0CB841A206B79AEE7CC
:105F4000502C07D1954B1B78002B00F0C184042006
:105F50006B79A4E7512C07D1904B1B78002B00F0F4
:105F6000B78416206B799AE74F2C0AD18B4B1B789C
:105F7000002B00F0AD8407206B7990E7FEF720FD41
:105F800040E547F629039C4221D16B79002B3FF471
:105F900016AF834A1279FF2A05D1824B1B78002B5A
:105FA0003FF4C4AD2EE5B92A05D97E4A127812B95C
:105FB00001217D4A1170002B3FF401AF784B1B7912
:105FC000FF2BEAD0B92B7FF6FAAE764B14E047F6FA
:105FD0002A039C4218D16B79002B3FF4F0AE704B32
:105FE0001B79002BD9D0452B3FF6E9AE6D4B1A78C3
:105FF00012B901216C4A11701B78002B7FF4DFAEBF
:106000000122694B1A70DAE647F65B639C4240F066
:106010005A846B79002B00F06084644A64481378DA
:1060200083F001031370C372FFF76EFA614A1368BD
:1060300023F40013C9E46B79002B3FF4C0AE584B36
:10604000DB78FF2BA9D0BE2BBDE76B79002B3FF48B
:10605000B6AE534BDB78002B9FD0322B3FF6AFAE62
:10606000B3E7E12226231146687906F0F5FAC9E480
:106070002723E522E521F7E72623E122E021F3E7C4
:106080002723E522E421EFE72623E122E221EBE7C3
:106090002723E522E621E7E728230122EAE7237800
:1060A00043F00103237004202188FFF7E7F9FEF78E
:1060B00047F9A7E4637843F008036370F3E72378B4
:1060C00043F00203EEE7237843F00403EAE7237882
:1060D00043F00803E6E7637843F00103EDE76378F4
:1060E00043F00203E9E7237843F01003DAE723786B
:1060F00043F02003D6E7237843F04003D2E7FEF7CE
:106100001FF9237843F08003CCE7237843F00C0396
:10611000C8E7637843F00303CFE7237823F0010354
:10612000C0E7637823F00803C7E7237823F002036E
:10613000B8E7237823F00403B4E7237823F00803B7
:10614000B0E7637823F00103B7E7637823F0020335
:10615000B3E7237823F01003A4E7237823F0200388
:10616000A0E7237823F040039CE7FEF7E9F82378C3
:1061700023F0800396E7237823F00C0392E76378FB
:1061800023F0030399E72378C3F3800282F001022E
:10619000D2B262F3820362F3C30383E7F2280020E2
:1061A00040280020EA280020E9280020CE280020EE
:1061B000A92B00203C0D00206378DA4302F0010295
:1061C00062F3000362F3410377E72378C3F380129D
:1061D00082F0010262F3861364E7FEF7B1F82378D8
:1061E000C3F3C01282F0010262F3C7135AE7012120
:1061F0000E20FFF732F956E70021F9E72378C3F3C1
:10620000001282F0010262F304134BE72378C3F318
:10621000000282F0010262F3000343E76378C3F3F4
:10622000C00282F0010262F3C30346E7AF4B187865
:1062300047F634039C4200F0220033D847F620038F
:106240009C4240F28480A4F5F044223C122C41D8B8
:1062500001A353F824F000BFDB620008E1620008EC
:10626000E7620008ED620008F3620008F9620008C6
:10627000FF620008056300080B630008055A000868
:10628000055A0008055A0008055A0008055A000872
:10629000055A0008055A0008055A0008055A000862
:1062A000055A000847F64F639C420DD047F65063ED
:1062B0009C420CD047F64E639C4248D18C4A8D4993
:1062C00005F06AFAFFF79EBB8B4A8C49F8E78B4AC8
:1062D0008949F5E78A4A8B49F2E78A4A8849EFE714
:1062E000894A8A49ECE7894A8749E9E7884A89491E
:1062F000E6E7884A8649E3E7874A8849E0E7874A2C
:106300008549DDE7864A8749DAE7864A8449D7E73F
:1063100047F603439C420BD8B4F5F84F17D3A4F5C6
:10632000F844013C022C71D8DFE804F0947C8D0025
:1063300047F65B439C4200F09A8047F65C439C42E0
:1063400000F08F8047F65A439C4200F093802A88E1
:106350006B79ADF808200298002B00F08D80FCF7D7
:10636000A3FD044601460298FCF7F4FABDF8083094
:106370002046ADF80C300399FCF7B0FBFCF7C4FCE9
:1063800097F8008095F8069018F0070804466E7993
:10639000C9F3031927D0B0462EB3C4F3072303F083
:1063A000F002402A0ED0C1B201F12002D2B2072A77
:1063B00066D903F0E003202B04D1012960D9B9F19B
:1063C000000F60D0584B93F8018018F004080AD0F1
:1063D0000220FCF72DFB3B7813F0070F0CBF4FF0AA
:1063E00001084FF00008C4F303330B2B00F2D080F8
:1063F000DFE813F04B004B00AE00AE0026013D017C
:10640000CE00CE004701A901BC01BC01FDF798FFF9
:1064100046F2A81006F0D2F844F24D22434B9A629D
:1064200005F06CFD42490B78C3F3000282F00102D3
:1064300062F300030B70DB074CBF3E483E48FEF79B
:1064400067FBFFF7DFBAFFF723FA4FF6FF71002073
:10645000FFF714F8FDF774FF46F2A81006F0AEF847
:10646000DEE7314B587880F00400C0F38000FFF77E
:1064700017F86CE70120FAE7FCF78AFA044675E79B
:106480004FF00008AFE7C846ADE7C4F30329C4F3F3
:1064900007224FEA09130F2A88BF9946E4B2AEB12A
:1064A000B9F1000F0CD004F12003DBB2072B00D9A7
:1064B00054B90E4A137849EA03031370FDF7D6FE68
:1064C0002046FEF791FA63E01C4AF3E72046FEF708
:1064D0003EFAB9F1000F5BD004F12003DBB2072BC9
:1064E00000D96CBB4846FCF7F1FA2EE04F2800209B
:1064F0006D580008495800087157000855570008A2
:106500000DB60008F1B500089DB6000889B6000870
:10651000D1B60008B5B6000809B70008EDB6000806
:1065200081B7000869B70008F4280020006C00401B
:106530004E280020020101081301010857280020FD
:106540009F4A137823EA09031370FDF78FFE1FE0BB
:10655000C4F30320C4F3072303F0F0030201E4B201
:10656000202B18BF10463CB1012C50D0002E59D022
:10657000B9F1000F29D0A3E7924B5B785C0720D4D8
:1065800026B128B1904A13780343DDE70028AAD149
:10659000B8F1000F0ED0387810F001030AD16B71FA
:1065A000C008FCF797F92846FFF7F0F93878C008DB
:1065B000FCF79AF90021284604B0BDE8F047FCF743
:1065C0009BBC86B1B9F1000F02D1FDF78DFEDFE76C
:1065D000B9F1010FDCD17D4A137830EA0301D7D03D
:1065E00003431370D4E7B9F1000FD1D10190FDF747
:1065F00085FE764A0198137818421CBF83431370B6
:10660000734A13781842C3D023EA0003E9E71EB1A6
:10661000B9F1050FBCD8D8E7B9F1040FB8D8FDF728
:106620006DFEB5E7B9F1000FF9D0392C0CBF4FF46E
:10663000FA50012005F0C2FF2046FEF788F9A7E7CF
:1066400014F4406FC4F3812307D0012BA0D166B1AD
:10665000C4F3090005F0AEFA9AE726B1C4F30900C5
:1066600005F08EFA94E73046FAE73046F2E7E0B2FA
:1066700026B105F02DF905F0C5FB89E705F08AF98B
:10668000F9E714F4407F2AD1002E4ED1E00648BF2E
:106690000F26C4F342124FEA8202D2B248BF96409C
:1066A00004F00F03C4F3812448BFF643022C03FA1D
:1066B00002F3484A0DD0032C0FD0012C04D01188CE
:1066C00033430B40138030E011880B431E43168088
:1066D0002BE0334311884B40F4E73343F2E7C4F334
:1066E000012206B3D10720D514F0100218BF0F22E3
:1066F000C4F342114FEA8101C9B218BF8A4004F0C5
:106700000F03C4F3812418BFD243022C03FA01F310
:10671000314912D0032C14D0012C09D013430A881C
:1067200013400B8001E0012ADED805F0BFF92FE706
:10673000088803431A430A80F7E713430A88534043
:10674000EFE71343EDE75FFA84F9C4F3032436B1AE
:106750002046FCF7BFF84846FDF7C6FDE5E748468A
:10676000FDF7CCFD2046FCF7BFF8DEE75FFA84FAC0
:10677000AAF1F003042B55D8DFE803F00336101715
:10678000300046B1B9F1040FCFD80123C4F304247B
:10679000114AA3409EE7B9F1050FF5E7C4F30420C1
:1067A000002EE0D1FCF796F8BFE70B4A002E8ED002
:1067B0000123C4F3042403FA04F41480B5E700BFF2
:1067C00057280020F42800204F28002050280020BF
:1067D000512800205228002054280020DFF830A142
:1067E0009AF801305A0704D4C4F30420002EBAD01A
:1067F000D8E76EB1C4F304242046FCF76BF89AF88E
:1068000001305B07CED5E40044F003043C70C9E7D7
:106810000120FCF70DF9B9F1010F86D90220FCF730
:1068200007F982E74EB1B9F1000F03D05046FEF7E9
:10683000DBF87AE7C4F30420B4E7B9F1000F0BD01A
:10684000BAF1390F0CBF4FF4FA50012005F0B6FE33
:106850005046FEF77CF868E7C4F3042083E747F668
:1068600047639C423FF46CAA47F648639C427FF41E
:106870002EAAE7206B79FFF765BA47F616439C42CC
:106880007FF446AD234B1B7803F0AA03002B14BF03
:1068900001220022204B0CBF292035201A7005F060
:1068A000A5F9FDF7E3FCFFF7ADB847F616439C42A8
:1068B0007FF4BCAC184B1B78002B0CBF2920352073
:1068C00005F0D8F9EDE747F627039C423FF4B3AB58
:1068D00047F628039C423FF4B8ABA4F5F843183BB5
:1068E000062B3FF66CAA01A252F823F0796000084B
:1068F000816000086360000871600008896000081A
:10690000916000089960000804B0BDE8F08700BFFE
:10691000F42800204F2800204D2800201C49F8B5FD
:106920008B790F2B0AD84B7943B11A4B1A4A1B7833
:1069300015784E780F78194CAB4200D1F8BD04EBB6
:10694000C300027902B34278B2421DD114F8332059
:10695000BA4219D14279BAB94288B1F802C0A2EB61
:106960000C0292B2C72A0FD801228B7962F3071367
:106970008B71837962F3071383710548FFF706F87B
:10698000BDE8F840FCF744B8013303F00703D3E750
:106990009A28002059280020582800205A28002032
:1069A0002DE9FF470546824C06220146684608F05D
:1069B000BBFA94F804906F792A79B9F1000F12D1DB
:1069C0007AB1002F00F0F0802846FCF7C1FA0028C9
:1069D00000F0EA8008222946754808F0A5FAFFF77A
:1069E0009DFF012442E0B5F802A063886679AAEB16
:1069F000030395F800809BB2002E00F0A680C72B01
:106A000067D8002AEDD0A37962780F2B697850D827
:106A100091420FD1227842450CD1002F44D101225E
:106A2000204662F30713A371FEF7B0FFA379AB71A1
:106A300000241BE0002F37D13A464046FBF7C6FF43
:106A40004046FBF7C3FF04460028F1D10098FCF74D
:106A50006DFAC0F30332032AC3B20BD8012A13D94B
:106A600010F4706F15D0AA790F2A12D8204604B0FE
:106A7000BDE8F087063202F00F02012A0ED928463F
:106A8000FEF784FF3446F1E710F4706F01D0002B5D
:106A9000ECD02033DBB2072BE8D9F0E7EF2BE5D9B8
:106AA0000F33DBB2022BF7E7A37943F00103A371A5
:106AB000BEE791422ED1227842452BD157BB2846C2
:106AC000AB71FEF763FF08222946204608F02CFA36
:106AD00087E7A3790F2B08D82046FEF757FF082237
:106AE0000021204608F0C6F9A2E7002A3FF479AF5A
:106AF00061786A7891420DD1227842450AD14FB926
:106B00002846AB71FEF742FF08223946204608F0BE
:106B1000B1F966E72846FCF71BFA002844D0002F9D
:106B200042D0A3791F2B7FF655AF228802A8ADF87B
:106B300008200022ADF80AA08DF80C908DF80D20E9
:106B40008DF80E30FEF722FF44E7C72BC7D8002A86
:106B50003FF447AF47B362786B789A421AD12378F3
:106B6000434517D1A379DA0710D40F2B0ED9AB7197
:106B700003F0F003F02B06D0AB79C3F3031201321C
:106B800062F30713AB712846FEF700FF082229467F
:106B900007489BE72846FCF7DBF900287FF41AAF8B
:106BA000A37943F00103A3712846FEF7EFFE18E72F
:106BB0009A280020F0B589B0CDE900019DF8055074
:106BC00000220DB12A490A709DF80460DDE9000138
:106BD000ADF80E2002903EB1012102A88DF80C60A4
:106BE0008DF80D50FCF788F98DF80C608DF80D507C
:106BF000DDE90201CDE9040104A8FFF7D1FE1D4E35
:106C000007461D4CB8B9DDE90401CDE906019DF840
:106C100014103378227871B15D1C05F00705954298
:106C200010D01648082206A900EBC30008F07CF932
:106C30003570FBF7EDFE114D2078337883420BD190
:106C400009B0F0BDFDF77CFB082239460C483770CF
:106C5000277008F00FF9EEE705EBC000FFF7A0FE84
:106C60000028EDD02378013303F007032370E3E716
:106C70005728002058280020592800205A28002092
:106C80009A28002073B505F04BF80A4D84B22B8882
:106C9000A3420DD00026ADF8006005F041F8ADF834
:106CA0000460ADF80200DDE90001FFF783FF2C80EE
:106CB00002B070BDD227002010B5304C0522A36968
:106CC000022143F40073A361A3692D4843F0080334
:106CD000A36106F0D3FE2B4B9A6842F400029A603F
:106CE000626822F440426260626842F4404262603C
:106CF0005A6822F470225A605A685A605A6822F41C
:106D000080725A60204AD2F8801421F44051C2F8AF
:106D10008014D2F8801441F48051C2F880149A682B
:106D200022F002029A609A6822F460229A609A68BD
:106D300042F460229A609A6842F480129A609A68DB
:106D400022F400629A60DA6A22F47002DA62DA6A85
:106D5000DA629A6842F001029A609A6842F0080288
:106D60009A609A681207FCD49A6842F004029A600A
:106D7000044A93685B07FCD410BD00BF00100240BA
:106D8000000C014000240140002001402DE9F043A7
:106D9000284D97B007AC0FCD0FC40FCD0FC40FCD4A
:106DA0004FF001080FC495E807000F2584E807009D
:106DB00007AE56F8041B4A1C0BD021F00F0701F058
:106DC0000F0108FA01F406222146384606F056FE65
:106DD0007C61013D15F0FF05EBD1174D01AC0FCDE6
:106DE0004FF001080FC495E803004FF03009062565
:106DF00084E8030001AE56F8044B631C12D024F063
:106E00000F0704F00F040322384608FA04F106F0D5
:106E100035FE89F311882146384606F039FF0023F4
:106E200083F31188013D15F0FF05E4D117B0BDE8EB
:106E3000F08300BF50F100088CF1000870B586B0F7
:106E40006C46284D0FCD0FC495E8030084E803007D
:106E5000254C237883B3254D4FF4967005F0AEFB97
:106E60000A2268460623016821F00F06B66801F081
:106E70000F0126FA01F1C9071ED5013B13F0FF03EC
:106E800000F10400EFD1013A12F0FF02E9D1FFF75F
:106E90007DFF2A68164B13432B602B6843F00C03CD
:106EA0002B60144B1A6942F004021A6130BF1A6950
:106EB00022F004021A61CFE70F4B104A1968114003
:106EC0001960596811405960996811409960D968F2
:106ED0000A40DA604FF6FF725A610023237006B051
:106EE00070BD00BF8CF10008A72900200070004091
:106EF000010C0C0000ED00E0000401400000FFFF69
:106F000008B5302383F31188012100F00F03994065
:106F1000032220F00F0006F0B1FD002383F3118857
:106F200008BD000038B50F24114D55F8040B421C64
:106F300001D0FFF7E5FF013C14F0FF04F5D1062472
:106F40000C4D55F8040B431C01D0FFF7D9FF013C51
:106F500014F0FF04F5D121460C22074807F08AFF00
:106F60002146BDE838400C22044807F083BF00BF2B
:106F70005CF6000898F60008C6270020B628002016
:106F80008023674A2DE9F047536108234FF40057E7
:106F900053612023DFF88C914FF40074C9F814700A
:106FA00053610423604EC9F81040C2F8103830789D
:106FB00004F022FC03224FF480785C4BDFF870A1D0
:106FC0001A70FDF7E9FD4FF47A7005F0F7FA06F054
:106FD0004FFE05220121574806F050FD05220221EF
:106FE000544806F04BFD504602224FF40061CAF8A7
:106FF000148006F043FD504602224FF4805106F003
:107000003DFDFFF7C3FE02222146454806F036FD4E
:10701000302585F311880921414806F039FE002406
:1070200084F3118802224FF40041484606F026FD01
:1070300085F311880F21484606F02AFE84F3118853
:1070400002224FF48041484606F018FD85F311886E
:107050000E21484606F01CFE84F3118802224FF4EC
:1070600080612F4806F00AFD85F311880A212C481B
:1070700006F00EFE84F3118802224FF400612848C6
:1070800006F0FCFC85F311880B21254806F000FE74
:1070900084F31188284A294D936823F001039360F3
:1070A000274B284A19680A431A601A6842F00C02F2
:1070B0001A602B6943F004032B6130BF2B6923F066
:1070C00004032B61FFF7BAFE2B6923F004032B6145
:1070D00006F034FC06F01CFDFFF724FFFFF7ECFD83
:1070E000CAF8108004F01CFE174B1860174B1C6088
:1070F00004F016FE164B186004F012FE154B1860D3
:1071000004F00EFE144B1860FBF7A2FB0122134B98
:107110001A70C9F8107004F03BFE3070BDE8F087BB
:10712000000C0140001001409C290020A00E00200E
:1071300000080140001401400024014000ED00E07F
:1071400000700040010C0C00582B0020542B002034
:10715000102900200C2900205C2B0020380D002075
:107160002DE9FF47002401253027DFF84C81534EDD
:1071700001940294039458F8041B4B1C2DD1013444
:10718000E4B26D000F2CADB2F5D10C224C4801A930
:1071900007F0C6FF4B4C002872D00C2201A94848CA
:1071A00007F0C2FE0123237004F0BAFD464B1860BD
:1071B000464803780133DBB2312B03700AD9444BC4
:1071C0001A68510104D4D968002971D00139D960F5
:1071D0000023037004B0BDE8F08787F311884FF0F7
:1071E000010921F00F0A01F00F0109FA01F9062245
:1071F0004946504606F042FCCAF81490002383F337
:10720000118800BF00BF00BF00BF00BF00BF00BFAC
:1072100000BF00BF00BF00BF00BF00BF00BF00BF76
:1072200000BF00BF00BF6FEA050EDFF8A8C001A8CD
:107230005CF8041B30F8022BB1F1FF3F1DD021F0A8
:107240000F09D9F8089001F00F0129FA01F1C907D7
:1072500013D42A430133DBB2062B20F8022CE7D1EA
:1072600058F8040C431C01D0FFF74AFE726873689B
:107270009B1AB3F5076FFAD381E702EA0E02E9E73A
:107280002378002B94D0104B1D6804F049FD401B5F
:1072900001288DD90C220A490F4807F041FF20B17F
:1072A0000C2207490C4807F03FFE002323707FE7BC
:1072B00042F080621A608BE75CF60008001000E084
:1072C000B6280020C4270020C0270020BC270020AB
:1072D0003C0D002098F60008C62700202DE9F04F4D
:1072E000944A95481378954F0133DBB2142B08BFAD
:1072F00000238BB0137003783A7801335200B3FB4C
:10730000F2F102FB11330A218D4A037013788D4C80
:107310000133B3FBF1F001FB10338B48137002789B
:107320008A4E0132B2FBF1F301FB1322027088484E
:107330002178037849000133B3FBF1F501FB1533E4
:107340003178DBB2037011B10BB901393170814969
:107350000B7833B100230B700370052323700323D4
:10736000337022B97C4A13780BB1013B13707B4D0B
:10737000DFF8EC912B787B4C23B199F80030002B8F
:1073800000F0BE8004F092FB8007337825D5002BF7
:107390004BD1714B1B780BBB73490A7842F0080242
:1073A0000A70A268910507D54FF4007262616F49B7
:1073B0000A6822F008020A606D4A1278F2B9002BBE
:1073C00033D1694A137823F010031370694B9A681C
:1073D00056072AD404221A6122E033BB5E4B1B7885
:1073E000002BE9D160490A7822F008020A70A268ED
:1073F0009205E1D44FF400722261D8E7ABB95A4A42
:10740000137843F0100313705A4B9B685B070CD53D
:107410002B7813B199F800303BB10422554B5A61D7
:10742000524A136823F020031360534B1B7883B137
:10743000524B1E6804F074FC801BB0F5FA6F08D93B
:107440004F4A5048137883F0010313708371FEF79D
:107450005BF84D4E3378BBB14C4BD3F8008004F051
:107460005FFCA0EB0800B0F5FA6F0DD903223A4B90
:1074700044481A700023464A3370137883F001039E
:107480001370C371FEF740F8424B1B78042B2AD1CE
:10749000414E337823B17320FDF764FD0023337030
:1074A000DFF8F88098F80030EBB13D4E316859B9FB
:1074B0003C4B93F900308B427ADA202202A807F085
:1074C000D9FC02A804F02AFB3368092B03F101025E
:1074D00003BF0023336098F80030326004BF03F12B
:1074E000FF3388F80030304E3049B36813F400732E
:1074F00064D10A78012A00F2D88001320A7074E05F
:107500001B4B1B7853B11B4B9A68500706D40422BF
:107510001A61164A136823F020031360A3689905C3
:1075200083D44FF40073114A6361136823F0080396
:107530007AE700BFED280020B0290020390D002097
:10754000A6290020EB280020A5290020EA280020F9
:10755000EC280020E9280020A3290020A00E00200C
:10756000A82B002000100140B82900203C0D00206D
:10757000BE29002000140140E8280020E428002053
:10758000F3280020A92B0020E0280020DC28002080
:10759000F228002014290020C5280020B42800204B
:1075A000B0280020F4280020000C0140A228002070
:1075B00002A8CDE9021104F081FA85E700233E4AD2
:1075C0000B7013783D493E48002B64D0B36813F02C
:1075D000020360D13B4E3688B6F5617F5BD80B70F5
:1075E0000378312B54D801330370374EDFF8DC8039
:1075F0003378EBB9FAF7AAFF354B82461880FAF7D1
:10760000EBFF40F2E46303FB0AFABAFBF0FA2D4BFE
:10761000A3F800A0FBF726F82E4B18702E4B18701D
:1076200004F07EFB01232D4AC8F80000137033706C
:10763000D8F800A004F074FB42F21073A0EB0A002B
:10764000984262D9FAF782FF214B82461880FAF7F6
:10765000C3FF40F2E46303FB0AFABAFBF0FA194BEA
:10766000A3F800A0FAF7FEFF134B1A4A93F800C0E4
:107670001070BCF1010F1A4B40F0EA84DFF858E0BB
:107680009EF8001088422DD800201870117038E044
:1076900002231370A9E7002303700B78312B02D863
:1076A00001330B70A1E70123F3E7034A1370322380
:1076B000034A1370014AECE7BC290020350D002075
:1076C000360D0020262B0020AD280020A428002005
:1076D000AA28002000290020A8280020AE28002089
:1076E000A328002018780130C0B202281870CDD924
:1076F00000201870B84B01318EF80010117083F81B
:1077000000C004F00DFBC8F80000A3681A0454BFC1
:107710000123A368B14A41BFC3F3803383F001035F
:107720005B00DBB213702A789A4228D0DFF8B0826F
:107730002B7098F800A0BAF1000F40F00785012BDC
:1077400040F0B184A74B1868032884BF00F0030001
:107750001860FDF73FFF04F0E3FAA34B186004F054
:10776000DFFA0022A14B1860A14B1A6004F0D8FA8E
:10777000A04BA14A18600023137005233B709F4B58
:10778000D3F8008004F0CCFAA0EB0800B0F57A7FC3
:1077900022BF00229A4B1A702B78012B2BD199F81B
:1077A00000206AB3974ADFF830821178002940F050
:1077B000F58488F800301370914B93F800A0BAF16B
:1077C000000F40F0F0843378002B00F0EC848E4BF7
:1077D00055201E7806F0A6FD022006F0A3FD092024
:1077E00006F0A0FD304606F09DFD4FF47A7004F0DF
:1077F000E5FE88F800A099F80030002B40F0D38413
:10780000824E33783BB104F08BFA774B7D4A186097
:107810000023337013702B780BB3734B1E6804F086
:107820007FFA44F62063801B984207D93B78052BEA
:1078300004D1764B1B780BB9FFF7A2FB744B1E6883
:1078400004F06EFA4EF66023801B984207D93B780D
:10785000022B04D16D4B1B780BB9FFF791FB6D4BDD
:10786000DFF8B4A11B786D4E052B40F0EF842B7828
:10787000002B40F0F1849AF800302BB904F050FA54
:10788000012330608AF80030366804F049FA801B22
:10789000B0F5FA7F40F22A81614EB3689B0540F152
:1078A000258195F80080B8F1000F40F01F819AF80B
:1078B0000010012940F01A8180230191736108238F
:1078C00073614FF40053636120234FF4007B7361B5
:1078D0000423544AC4F810B01361534B187803F0D2
:1078E0008BFF019905224F4806F0C8F805220221B6
:1078F0004C4806F0C3F8FFF749FA594602223046D1
:1079000006F0BCF84FF0300B8BF31188092130469C
:1079100006F0BEF988F3118802224FF40041434873
:1079200006F0ACF88BF311880F21404806F0B0F94F
:1079300088F3118802224FF480413C4806F09EF8FB
:107940008BF311880E21394806F0A2F988F31188CB
:1079500002224FF48061304606F090F88BF31188D4
:107960000A21304606F094F988F3118802224FF478
:107970000061304606F082F88BF311880B21304607
:1079800006F086F988F311881221404606F080F946
:10799000274A284E936823F001039360264B274A19
:1079A00019680A431A601A6842F00C021A603369B7
:1079B00043F00403336130BF336923F004033361C0
:1079C000FFF73CFA336923F0040333611C4B1A6858
:1079D00022F480221A6035E0AE280020AC28002076
:1079E000F8280020B80E002010290020582B002075
:1079F000542B00205C2B0020B02900206C2B002091
:107A00006A2B0020C228002000290020CC2800205A
:107A10000C29002014290020370D0020C828002040
:107A2000000C0140001401409C290020001001407E
:107A30000024014000ED00E000700040010C0C004B
:107A4000000401405A6822F480225A609A6822F4A5
:107A500080229A60DA6822F48022DA604FF4802271
:107A60005A6105F06BFFFCF76BFCFCF7FFFBC54BA5
:107A70001B78052B0BD1C44EC820336C43F0100388
:107A8000336404F09BFD336C23F0100333644FF434
:107A9000805606224FF48051BC4805F0EFFFBB4BE7
:107AA0005E6105F041F905F0F9F831460222B74868
:107AB00005F0E4FF06F02CF8FFF734FAFFF7FCF8C6
:107AC0000223B34A0126137000228AF80030B14B1A
:107AD0001A60FAF7BDFEB04B1E704FF400532361DD
